:020000040800F2
:100000000000022089DF0008990300089D03000812
:10001000A1030008A5030008A903000800000000D0
:10002000000000000000000000000000AD03000818
:10003000B103000800000000B5030008B903000880
:10004000D9DF0008D9DF0008D9DF0008D9DF0008B0
:10005000D9DF0008D9DF0008D9DF0008D9DF0008A0
:10006000D9DF0008D9DF0008D9DF0008D9DF000890
:10007000D9DF0008D9DF0008D9DF0008D9DF000880
:10008000D9DF0008D9DF0008D9DF0008D9DF000870
:10009000D9DF0008D9DF0008D9DF0008D9DF000860
:1000A000D9DF0008D9DF0008D9DF0008D9DF000850
:1000B000D9DF0008D9DF0008D9DF0008D9DF000840
:1000C000D9DF0008D9DF0008D9DF0008D9DF000830
:1000D000D9DF0008D9DF0008D9DF0008D9DF000820
:1000E000D9DF0008D9DF0008BD030008D9DF000808
:1000F000D9DF0008D9DF0008D9DF0008D9DF000800
:10010000D9DF0008D9DF0008D9DF0008D9DF0008EF
:10011000D9DF0008D9DF0008D9DF0008D9DF0008DF
:10012000D9DF0008D9DF0008D9DF0008D9DF0008CF
:10013000D9DF0008D9DF0008D9DF0008D9DF0008BF
:10014000D9DF0008D9DF0008D9DF0008F103000873
:10015000D9DF0008D9DF0008D9DF0008D9DF00089F
:10016000D9DF0008D9DF0008D9DF0008D9DF00088F
:10017000D9DF0008D9DF0008D9DF0008D9DF00087F
:08018000D9DF0008D9DF0008F7
:100188002DE9F84F40F23C7840F2407B42F2C50539
:10019800C2F20008C3F680754FF0000AC2F2000BE5
:1001A8004FF44060C4F202004FF4805101F070F93E
:1001B8004FF4FA73C8F80030D8F800000028FBD1D3
:1001C8004FF440604FF48051C4F2020001F062F92C
:1001D80040F23C72C2F200024FF4FA711160D8F892
:1001E8000030002BFBD144F24024CBF80030C0F2A1
:1001F8000F04284604F032F88146284606F02EFA05
:10020800064648460F4606F029FA23A3D3E90023F9
:1002180006F078FA02460B463046394606F0C0F832
:1002280006F082FC064604F019F80546304606F04A
:1002380015FA064628460F4606F010FA16A3D3E923
:10024800002306F05FFA02460B463046394606F0B0
:10025800A7F806F069FC013C013C0546C9D14EF2FD
:10026800B810DBF80010C0F6000006F0BFFF4EF231
:10027800CC105146C0F6000006F0B8FF284606F03C
:10028800EDF902464EF2DC100B46C0F6000006F00F
:10029800ADFF0AF1010A83E77B14AE47E17A843F98
:1002A80040F2100CC2F2000C30B544F6D352DCF820
:1002B8000040C1F26202A2FB04354EF2100C4FF46A
:1002C8006D4ECEF2000CAB09CEF2000E0025581E82
:1002D800F021072485B0CCF804008EF823100820FC
:1002E800CCF808500121CCF8004000F041FE4FF452
:1002F80040600323012402A94FF47042C4F20200B3
:1003080002928DF80E508DF80D308DF80F508DF843
:100318000C4040F2140500F0D7FF40F2447040F260
:10032800700240F21C13C2F20005C2F2000021461E
:10033800C2F20002C2F20003009504F071F905B0A0
:1003480030BD00BF40F23C73C2F200031A6812B11C
:100358001968481E186040F24073C2F2000318681A
:10036800421C1A60704700BF82B040F23C72019094
:10037800019BC2F20002136010680028FCD102B091
:10038800704700BFFEE700BF704700BFAFF30080B3
:10039800704700BFFEE700BFFEE700BFFEE700BFF3
:1003A800FEE700BF704700BF704700BF704700BF3F
:1003B800FFF7C8BF10B540F24474C2F20004A37A34
:1003C80063B14EF61050CEF20000016821F006022B
:1003D800026000F00FF8204605F03CFB4FF4802047
:1003E800BDE8104002F086BA40F24470C2F2000044
:1003F80005F026BD4FF46053C4F2020300221868CA
:1004080040F0010119609A60186843F2100120F069
:10041800847C2CF48030C2F200411860596018685E
:1004280082B020F480211960DA6000920192186885
:1004380040F480321A601A4603E00098B0F5A06FC5
:1004480009D0116801F4003301930098411C009110
:10045800019B002BF1D04FF4605CC4F2020CDCF875
:10046800003013F4003208BF019201D0012101913C
:100478000198012808D04FF46D43CEF200034FF0E5
:100488000060986002B070474FF46053C4F20203F2
:100498004FF4E04C186CC4F2000C40F08051196421
:1004A800DCF8002042F48040CCF80000996899609C
:1004B8009A6842F400409860996845F2084041F40F
:1004C800A052C0F240709A605860196841F080727A
:1004D8001A6019460A684FF460539201C4F2020385
:1004E800F8D54FF4705CC4F2020C40F20560CCF809
:1004F8000000996821F003029A60986840F00201B0
:100508009960996801F00C02082AFAD1B3E700BF94
:100518004FF46053C4F202039A6802F00C02042AF2
:1005280004BF47F64001C0F27D1106D0082A1CBF5F
:100538004FF41051C0F2F40110D04FF46050C4F2DF
:10054800020040F200038268C2F20003C2F3031CF7
:1005580013F80C0021FA00F11961704758685A68BD
:10056800596810F4800F4FF4605C14BF47F64003DD
:100578004FF41053C4F2020C14BFC0F27D13C0F242
:10058800F40302F03F02C1F38810B3FBF2F1DCF888
:100598000430C3F3014201FB00F1501C4300B1FBDE
:1005A800F3F1CAE700207047002070470120704728
:1005B800002070474FF0FF30704700BF10B50C4661
:1005C80048B9204600F0A8F90028FAD0207800F0B1
:1005D800EFF8012010BD002010BD00BF40F2CC6331
:1005E800C2F20003186838B141186A46914294BFB4
:1005F80019604FF0FF30704741F29460C2F200007A
:100608001860F1E710B508461446114600F03AF9AB
:10061800204610BD704700BF704700BF704700BF3D
:10062800704700BF704700BF704700BF704700BFEA
:1006380000207047002070472DE9F00100293FD0C5
:1006480040F2EC63C2F2000340F690641A6807783F
:10065800C2F20004551C4E1EA75400270122B5F50E
:10066800006F1D609C4606F001062DD08A4227D0F7
:1006780056B11A684678551CA6540222B5F5006F83
:100688001D6019D08A421BD01E6810F80280751CA4
:100698000132B5F5006F1D6008BFCCF8007004F892
:1006A80006801E6810F80280751C0132B5F5006FCF
:1006B80004F806801D60E5D18A42CCF80070E3D1C9
:1006C8000020BDE8F00170471F60CFE72DE9F00377
:1006D800002950D040F6CC55C2F2000540F6B85279
:1006E8002C68077840F63856C2F20002631CC2F242
:1006F800000601F1FF3C802B37552B601768A9468F
:100708004FF000080CF0010231D09F4229D001249B
:100718008C422AD052B1025DF2541B19802B2B60F7
:100728001AD09F421DD001348C421ED05A1C802AF8
:1007380010F804C02A6004BFC9F80080002297425C
:1007480006F803C00DD00134531C10F804C02B6008
:10075800802B06F802C0E4D100239F42C9F800802C
:10076800E1D10220BDE8F00370470020FAE7C5F8A0
:1007780000804346C9E70846F4E700BF212814D1A2
:1007880040F23000C2F2000003680B700268130ADE
:100798004B7042888A7090F803C081F803C00379CF
:1007A8000B7142794A7183798B710020704700BFC1
:1007B80040F2EC63C2F2000310B41C6840F6906289
:1007C800611CC2F20002B1F5006F1055196001D02A
:1007D80010BC704700201860FAE700BF03782DE9C5
:1007E800F001002B49D00246002312F8011F013303
:1007F8000029FAD1002B40D040F2EC62C2F200028C
:1008080040F69065146890F800C0C2F20005661CB6
:100818005F1E05F804C00124B6F5006F1660944603
:1008280007F001072CD09C4227D057B114684778AD
:10083800661C2F550224B6F5006F166019D09C422D
:100848001BD0176810F804807E1C0134B6F5006FC1
:10085800166008BFCCF8001005F80780176810F874
:1008680004807E1C0134B6F5006F05F80780166019
:10087800E5D19C42CCF80010E3D1BDE8F001704707
:100888001160D0E72DE9F00100293FD040F2EC6378
:10089800C2F2000340F690641A680778C2F20004B6
:1008A800551C4E1EA75400270122B5F5006F1D6088
:1008B8009C4606F001062CD0012927D056B11A68AB
:1008C8004678551CA6540222B5F5006F1D6019D054
:1008D80091421BD01E6810F80280751C0132B5F5D4
:1008E800006F1D6008BFCCF8007004F806801E6811
:1008F80010F80280751C0132B5F5006F04F8068007
:100908001D60E5D19142CCF80070E3D1BDE8F0015B
:1009180070471F60D0E700BF40F6B85340F6CC5C84
:10092800C2F20003C2F2000C1968DCF800208A4207
:1009380011D040F6385CC2F2000C1CF8012002709D
:100948001968481C8028186001D0012070470020D1
:100958001860012070470020704700BFF0B440F6CF
:10096800B85140F6CC54C2F20004C2F20001226829
:100978000B689A421EBF40F6385C1E46C2F2000C55
:1009880002D11CE09A4215D01CF80350D5F101079A
:1009980038BF00270A2D08BF47F001070FB90D2DF2
:1009A8000FD15E1C802E18BF3346EBD100239A422C
:1009B8001E46E9D10E6000273846F0BC7047002774
:1009C800FAE70E600FE022689A42F8D01CF803504C
:1009D8002B1C18BF01230A2D0CBF002303F00103B1
:1009E80053B10D2D08D0C5550A680137BB18802BA7
:1009F800E9D157420023E6E70022C25508683A18B1
:100A080040F6B8537F2A0A60C2F20003D4D9803A6C
:100A18001A60D1E7704700BF122340F24C000B80E8
:100A2800C2F20000704700BF04230B8000487047E3
:100A38006000002010B540F6D054C2F200044EF217
:100A4800F0100A46C0F60000214604F0D5F820460A
:100A580010BD00BF0A464EF2042040F6D05108B53A
:100A6800C0F60000C2F2000104F0C6F840F6D0500B
:100A7800C2F2000008BD00BF0A464EF2142040F63C
:100A8800D05108B5C0F60000C2F2000104F0B4F875
:100A980040F6D050C2F2000008BD00BF08B50A46B3
:100AA80070B14EF2302040F6D051C0F60000C2F2CC
:100AB800000104F0A1F840F6D050C2F2000008BDD1
:100AC8004EF2202040F6D051C0F60000C2F20001DC
:100AD80004F092F840F6D050C2F2000008BD00BF02
:100AE80008B50A4670B14EF2642040F6D051C0F6FF
:100AF8000000C2F2000104F07FF840F6D050C2F2C4
:100B0800000008BD4EF2402040F6D051C0F600006B
:100B1800C2F2000104F070F840F6D050C2F20000B2
:100B280008BD00BF704700BF704700BF70B5012007
:100B3800002482B0C4F20204014600F019FA00252C
:100B48004FF4D853022203266946204600938DF8B5
:100B580004208DF806508DF807508DF8056000F0D8
:100B6800B3FB204608210A2200F0A4FC20460921F4
:100B78000A2200F09FFC20460B210A2200F09AFC72
:100B88000A2220460C2100F095FC01254FF48063D1
:100B98006946204600938DF806508DF807508DF869
:100BA800056000F091FB0A210A46204600F082FC0D
:100BB80029464FF4804000F013FA8020294600F0BF
:100BC800E5F94FF08050294600F042FA284601F036
:100BD80091FE02B070BD00BF00B54FF4C06083B095
:100BE80003F074F801234321032201A88DF80410AF
:100BF8008DF805308DF806208DF8073003F070F871
:100C080003B000BDC0EB001044F62511C200C2F2CB
:100C18009241A1FB0213D01A03EB5002920802F092
:100C2800010101233AB111B102239A4204D30233DC
:100C38009A42FCD270477047704700BF4DF2C043DC
:100C4800C0F2010344F6251103FB00FCC2F29241F5
:100C5800A1FB0C10C0EB0C0200EB52039B0803F045
:100C6800010101223BB111B10222934204D30232A5
:100C78009342FCD270477047704700BF4FF46053EF
:100C8800C4F202030022186840F0010119609A605A
:100C9800186843F2100120F0847C2CF48030C2F2F2
:100CA800004118605960186820F480211960DA60E2
:100CB800704700BF43F60203C4F2020300221A7011
:100CC8001870704782B04FF4605100230193C4F24A
:100CD80002010A680198431C01930198B0F5A06FBE
:100CE80001D09303F5D54FF46052C4F202021168A3
:100CF800C1F3404002B070474FF46053C4F202039E
:100D08001A6822F0F80141EAC0021A60704700BF71
:100D18000023C4F247231860704700BF43F67003EE
:100D2800C4F20203002201281A701A7004D00428A1
:100D380001D1052018707047187070474FF4686328
:100D4800C4F2472318607047084340EA821C009A9F
:100D58005B084FF460504CEA0261013BC4F20200A8
:100D680041EA0342426070476023C4F24723186097
:100D7800704700BF4FF460538001C4F2020340EA99
:100D88000171C3F8841070476823C4F247231860C0
:100D9800704700BF4C23C4F247231860704700BF58
:100DA8004FF46053C4F202039A6822F0EC6C40EAF4
:100DB8000C0040EA01029A60704700BF4FF460538C
:100DC800C4F202039A6822F0784C40EA0C0040EA28
:100DD80001029A60704700BF4FF46053C4F20203E7
:100DE8009A6822F0030140EA01029A60704700BF46
:100DF8004FF46053C4F20203986800F00C00704787
:100E08004FF46053C4F202039A6822F0F00140EAFA
:100E180001029A60704700BF4FF46053C4F20203A6
:100E28009A6822F4E05140EA01029A60704700BFD4
:100E38004FF46053C4F202039A6822F4604141EA15
:100E4800C0029A60704700BF4FF46053C4F20203B7
:100E580010B49A6802F00C02042A02BF47F6400157
:100E6800C0F27D11016007D0082A1EBF4FF410514F
:100E7800C0F2F401016021D04FF46053C4F20203C0
:100E880040F28C0C9A68C2F2000CC2F303141CF8EE
:100E9800042021FA02F141609C68C4F382221CF804
:100EA800024021FA04F484609A68C2F342331CF8C1
:100EB800032021FA02F3C36010BC70475C685A68CB
:100EC800596814F4800F4FF4605C14BF47F6400370
:100ED8004FF41053C4F2020C14BFC0F27D13C0F2D9
:100EE800F40302F03F02C1F38814B3FBF2F1DCF81B
:100EF8000430C3F3014201FB04F1541C6300B1FB4D
:100F0800F3F10160B8E700BF00F44073B3F5407F28
:100F18000FD14FF4605CC4F2020C20F07043DCF88F
:100F2800082023F4407122F4F81341EA0302CCF8B4
:100F380008204FF4605CC4F2020C0305DCF8702052
:100F4800190D41EA0200CCF87000704740F63C6386
:100F5800C4F24723186070474FF46463C4F2472310
:100F6800186070474FF4AE73C4F247231860704797
:100F78004FF46053C4F202031A6B19B922EA000154
:100F88001963704710431863704700BF4FF46053EC
:100F9800C4F202035A6B19B922EA00015963704777
:100FA80010435863704700BF4FF46053C4F2020304
:100FB8009A6B19B922EA0001996370471043986344
:100FC800704700BF4FF46053C4F202031A6C19B99A
:100FD80022EA00011964704710431864704700BF83
:100FE8004FF46053C4F202035A6C19B922EA0001A3
:100FF8005964704710435864704700BF4FF46053FA
:10100800C4F202031A6919B922EA0001196170478A
:1010180010431861704700BF4FF46053C4F20203D5
:101028005A6919B922EA0001596170471043586199
:10103800704700BF4FF46053C4F202039A6919B9AC
:1010480022EA00019961704710439861704700BF18
:101058004FF46053C4F202031A6A19B922EA000174
:101068001962704710431862704700BF4FF460530D
:10107800C4F202035A6A19B922EA00015962704798
:1010880010435862704700BF4FF46053C4F2020324
:101098001A6D19B922EA00011965704710431865DD
:1010A800704700BF4FF46053C4F202035A6D19B978
:1010B80022EA00015965704710435865704700BF20
:1010C8004FF46053C4F202039A6D19B922EA000181
:1010D8009965704710439865704700BF4FF4605397
:1010E800C4F202031A6E19B922EA000119667047A0
:1010F80010431866704700BF4FF46053C4F20203F0
:101108005A6E19B922EA00015966704710435866A9
:10111800704700BF43F60D03C4F202031A7819B9E9
:1011280022EA00011970704710431870704700BF19
:101138004309012B0ED0022B4FF46053C4F2020373
:1011480000F01F010CBF1B6F5B6F23FA01F000F06A
:10115800010070474FF46053C4F2020300F01F010E
:101168001B6823FA01F000F0010070474FF4605348
:10117800C4F20203586F40F080725A67704700BF8C
:101188004FF46051C4F20201CB6818420CBF002032
:101198000120704743F60E03C4F20203187070472B
:1011A80008B50023C4F2020398423CD04FF4806192
:1011B800C4F20201884240D04FF40062C4F2020235
:1011C800904244D04FF4406CC4F2020C604548D0C1
:1011D8004FF48053C4F2020398424CD04FF4A0510C
:1011E800C4F20201884250D04FF4C052C4F2020245
:1011F800904254D04FF4E05CC4F2020C604558D0E1
:101208004FF40053C4F20203984200D008BD0121F4
:101218004FF48070FFF7F2FE4FF480700021BDE8B4
:101228000840FFF7EBBE01200146FFF7E7FE01206B
:101238000021BDE80840FFF7E1BE02200121FFF7C9
:10124800DDFE02200021BDE80840FFF7D7BE0420DC
:101258000121FFF7D3FE04200021BDE80840FFF775
:10126800CDBE08200121FFF7C9FE08200021BDE8F6
:101278000840FFF7C3BE10200121FFF7BFFE102072
:101288000021BDE80840FFF7B9BE20200121FFF783
:10129800B5FE20200021BDE80840FFF7AFBE402082
:1012A8000121FFF7ABFE40200021BDE80840FFF711
:1012B800A5BE80200121FFF7A1FE80200021BDE806
:1012C8000840FFF79BBE00BF00232DE9F0070A681E
:1012D8001C4601264FF0030C0BE0013406FA04F516
:1012E80005EA02070233AF4235D001340233102C2D
:1012F80059D006FA04F505EA0207AF42EDD1D0F855
:10130800009091F804800CFA03F5ED4305EA090A08
:10131800C0F800A0D0F8009008FA03FA08F1FF38E6
:101328005FFA88F84AEA0909B8F1010FC0F8009095
:101338003CD9C76891F807803D40C560C76808FA7E
:1013480003F53D430134C56006FA04F505EA0207D2
:101358000233AF42C9D1D0F8009091F804800CFA5A
:1013680003F5ED4305EA090AC0F800A0D0F800909B
:1013780008FA03FA08F1FF385FFA88F84AEA090917
:10138800B8F1010FC0F8009030D9C76891F807800C
:101398002F40C760C76808FA03F501343D4302339C
:1013A800102CC560A5D1BDE8F0077047D0F808A09B
:1013B80091F8059091F8068005EA0A0AC0F808A095
:1013C800D0F808A009FA03F949EA0A09C0F8089010
:1013D800D0F8049029EA07074760476808FA04F834
:1013E8001FFA88F848EA07074760A2E7D0F808A07C
:1013F80091F8059091F8068005EA0A0AC0F808A055
:10140800D0F808A009FA03F949EA0A09C0F80890CF
:10141800D0F8049029EA07074760476808FA04F8F3
:101428001FFA88F848EA07074760AEE700234FF637
:10143800FF720260037143718371C371704700BF0B
:1014480082B04FF480320192019B41EA030201927B
:10145800019BC361C161019AC261C1690191C369FC
:10146800019302B0704700BF036919420CBF002006
:1014780001207047006980B2704700BF4369194274
:101488000CBF002001207047406980B2704700BF40
:1014980001837047418370470AB9418370470183CC
:1014A800704700BF41617047426981EA02034361A6
:1014B800704700BFCB08083301F0070130B489003A
:1014C80050F823500F2404FA01FC25EA0C0440F8D4
:1014D800234050F8234002FA01F10C4340F823401E
:1014E80030BC704708B50023C4F2010398425BD0B2
:1014F800B0F1804F62D04FF48061C4F2000188429D
:1015080066D04FF40062C4F2000290426AD04FF4F1
:10151800406CC4F2000C60456ED04FF48053C4F2A6
:101528000003984272D04FF4A051C4F200018842DF
:1015380076D04FF48062C4F2010290427AD04FF420
:10154800804CC4F2010C60457ED04FF48843C4F24D
:101558000103984200F084804FF49041C4F20101E5
:10156800884200F089804FF4C052C4F200029042D1
:1015780000F08E804FF4E05CC4F2000C604500F08F
:1015880091804FF40053C4F20003984200D008BD84
:1015980001214FF48070FFF75BFD4FF4807000214C
:1015A800BDE80840FFF754BD01200146FFF75EFD86
:1015B80001200021BDE80840FFF758BD0120014681
:1015C800FFF746FD01200021BDE80840FFF740BDB8
:1015D80002200121FFF73CFD02200021BDE8084060
:1015E800FFF736BD04200121FFF732FD042000215A
:1015F800BDE80840FFF72CBD08200121FFF728FDB2
:1016080008200021BDE80840FFF722BD1020012175
:10161800FFF71EFD10200021BDE80840FFF718BDA8
:1016280020200121FFF714FD20200021BDE80840FB
:10163800FFF70EBD02200121FFF718FD022000214F
:10164800BDE80840FFF712BD01214FF48030FFF7D5
:101658000DFD4FF480300021BDE80840FFF706BDBE
:1016680001214FF40030FFF701FD4FF40030002155
:10167800BDE80840FFF7FABC01214FF48020FFF7CE
:10168800F5FC4FF480200021BDE80840FFF7EEBCD0
:1016980040200121FFF7DCFC40200021BDE8084084
:1016A800FFF7D6BC80200121FFF7D2FC8020002163
:1016B800BDE80840FFF7CCBC0023C4F2010330B4F6
:1016C800C51A6B424FF48062C4F2010243EB050372
:1016D800904208BF43F00103048883B9A0F1804C0D
:1016E800DCF100054FF48062C4F2000245EB0C0CFB
:1016F800904214BF62464CF00102002A2CD04FF6EB
:101708008F72B1F802C0144044EA0C044FF48055BB
:10171800C4F20005421B4FF4A05CC4F2000C18BFD1
:10172800012260450CBF002502F0010535B14FF6D6
:10173800FF42B1F808C0144044EA0C044D68B1F8FF
:1017480000C00480C562A0F828C00BB1897A018660
:101758000123838230BC70474FF40065C4F2000552
:10176800C5EB000CDCF100054FF44062C4F2000246
:1017780045EB0C05904214BF2A4645F00102002AA9
:10178800C4D0BCE700234FF0FF31416003800381E0
:1017980043808372704700BF01858282704700BF13
:1017A800B0F800C02CF0700213041A0C41EA0203CE
:1017B8000380704741627047C1627047406A704752
:1017C800008D80B2704700BF038829B923F0020159
:1017D8000B041A0C0280704799B241F0020303808F
:1017E800704700BF038829B923F004010B041A0CC1
:1017F8000280704799B241F004030380704700BF2C
:10180800038829B923F080010B041A0C0280704761
:1018180099B241F080030380704700BF028822F02C
:1018280008031A04130C0380B0F800C01FFA8CF2E6
:1018380041EA020303807047028822F440731A04C5
:10184800130C0380B0F800C01FFA8CF241EA0203BF
:1018580003807047038829B923F001010B041A0C8F
:101868000280704799B241F001030380704700BFBE
:101878002DE9F001058CB1F802808F89B1F800C01C
:1018880025F001021604340C0484058C8488038B2B
:101898000026C4F2010623F0730225F002031204A5
:1018A8001B044FF48065B04214BF0026012648EAA5
:1018B8000707C4F20105120C1B0CBFB2A84214BFE3
:1018C800354646F0010542EA0C023B43C5B14FF6E6
:1018D800F775B1F80EC0B1F812800F8A8E881D40D6
:1018E80045EA0C0C4FF6FB734FF6FF4548EA07072D
:1018F8000CEA030325401FFA87FC33434CEA05042E
:1019080089688480028341630384BDE8F0017047DD
:101918002DE9F001068CB1F80080B1F80CC04F88B1
:1019280026F010031D042C0C0484028C8488068B7A
:1019380022F0200526F4E6430026C4F201061A0424
:101948002B04120C1B0C4FF48065B042C4F2010545
:1019580014BF0026012643EA0C13A84214BF3546DB
:1019680046F0010542EA082243EA0713BDB1CD89D2
:10197800B1F810C0B1F804804F8A4FF67F761E4048
:1019880046EA05164FF2FF354FF6BF73254045EA84
:101998008C0C06EA030444EA08134CEA87048968B5
:1019A8008480028381630384BDE8F001704700BF2F
:1019B800038CB1F800C02DE9F00123F480752A04E6
:1019C800140CB1F80C804F880484068C8488838BAF
:1019D80026F400750026C4F201062A0423F07303D6
:1019E8001B04120C4FF48065B04214BF0026012678
:1019F800C4F201051B0C42EA0822A84214BF35466E
:101A080046F0010543EA0C0342EA0722BDB1CD893D
:101A1800B1F810C0B1F804804F8A4FF2FF76164033
:101A280046EA05264CF6FF754FF6FF32254045EA93
:101A38000C1C06EA020444EA08224CEA07148968E6
:101A480084808383C1630284BDE8F001704700BFCE
:101A58002DE9F001068CB1F80080B1F80CC04F8870
:101A680026F480531D042C0C0484028C8488868BF5
:101A780022F4005526F4E6430026C4F201061A04AF
:101A88002B04120C1B0C4FF48065B042C4F2010504
:101A980014BF0026012643EA0C33A84214BF35467A
:101AA80046F0010542EA082243EA073335B14BF60E
:101AB800FF7C0E8A04EA0C0545EA8614896884804E
:101AC800828301640384BDE8F0017047002303802A
:101AD8004380838083608381C3810382438270470C
:101AE80030B4048C0123A5B203FA01F4D1F1010347
:101AF80038BF002325EA0404082908BF43F001037E
:101B080000F11805048483B90439C1F34E0148F67D
:101B1800FF7C4B5903EA0C00485112024B5990B212
:101B280043EA00024A5130BC704749084FF68F7C9F
:101B3800485900EA0C034B51485902434A51F2E70D
:101B48004163704781637047C163704701647047A0
:101B5800B0F818C02CF0700213041A0C41EA020302
:101B680003837047B0F818C02CF4E04213041A0C31
:101B780042EA012303837047B0F81CC02CF07002BE
:101B880013041A0C41EA020383837047B0F81CC09F
:101B98002CF4E04213041A0C42EA012383837047B1
:101BA800B0F818C02CF0080213041A0C41EA02031A
:101BB80003837047B0F818C02CF4006213041A0CA1
:101BC80042EA012303837047B0F81CC02CF00802D6
:101BD80013041A0C41EA020383837047B0F81CC04F
:101BE8002CF4006213041A0C42EA01238383704721
:101BF800B0F818C02CF0040213041A0C41EA0203CE
:101C080003837047B0F818C02CF4806213041A0CD0
:101C180042EA012303837047B0F81CC02CF0040289
:101C280013041A0C41EA020383837047B0F81CC0FE
:101C38002CF4806213041A0C42EA01238383704750
:101C4800B0F818C02CF0800213041A0C41EA020301
:101C580003837047028B53045A0C42EA012303831F
:101C6800704700BFB0F81CC02CF0800213041A0C97
:101C780041EA020383837047828B53045A0C42EA79
:101C880001238383704700BFB0F820C02CF0020204
:101C980013041A0C41EA020303847047B0F820C009
:101CA8002CF0080213041A0C41EA0203038470475B
:101CB800B0F820C02CF0200213041A0C42EA0113D9
:101CC80003847047B0F820C02CF0800213041A0C6B
:101CD80042EA011303847047B0F820C02CF4007264
:101CE80013041A0C42EA012303847047B0F820C099
:101CF8002CF4006213041A0C42EA0123038470478F
:101D0800B0F820C02CF4005213041A0C42EA013334
:101D18000384704710B4048C012303FA01FCA4B2B5
:101D280024EA0C030384B0F820C002FA01F141EA66
:101D38000C03038410BC704710B4048C042303FA0A
:101D480001FCA4B224EA0C030384B0F820C002FA10
:101D580001F141EA0C03038410BC70470B88F0B40E
:101D6800002B33D0042B5FD0082B038C00F08B8022
:101D780023F480524F888E880D89CC8811040B0C6F
:101D88000384B0F81CC0028C22F400512CF4407378
:101D98004A04520C19050B0D42EA073143EA06239F
:101DA8008AB243EA053C42F48051A0F81CC0018481
:101DB800828B22F440610B041A0C8283818B8BB2D4
:101DC80043EA042CA0F81CC0F0BC7047B0F820C04F
:101DD8004E888D880F89CC882CF0010211040B0CD9
:101DE8000384028BB0F820C022F0F3010B041A0C14
:101DF8002CF00A0142EA07120B041FFA82FC46F093
:101E080001011B0C4CEA05020B4302830384B0F862
:101E180018C02CF00C0211040B0C0383028B91B236
:101E280041EA04030383CFE7028C4E888D880F892B
:101E3800CC8822F010031A04110C0184038BB0F82B
:101E480020C023F4407211052CF0A0030A0D1904D8
:101E58000B0C43EA061C42EA073291B21FFA8CF2D5
:101E680042F0100341EA052101830384B0F818C049
:101E78002CF4406211040B0C0383028B91B241EAEB
:101E880004230383A0E723F480724E888D880F898A
:101E9800CC8811040B0C0384828BB0F820C022F08C
:101EA800F3012CF420630A041904120C0B0C42EA07
:101EB800071C43EA06211FFA8CF28BB242EA050C92
:101EC80043F48071A0F81CC00184828B22F00C03BB
:101ED80019040A0C8283838B1FFA83FC4CEA0401E1
:101EE800818371E700230122038043808280C380BD
:101EF800038170472DE9F0018A88B1F802800B88C8
:101F0800B8F1000F0CBF02250025012A14BF0126D5
:101F18000226002B50D0048CB1F808C0CF8824F0DA
:101F280010031C04210C0184038B018C23F44074DE
:101F3800230521F0A0011C0D0B04190C44EA0C34F4
:101F480041EA081399B2A4B241F0100344EA02220C
:101F580002830384018B21F440631A04110C01836A
:101F6800038B9AB242EA07210183038C23F0010212
:101F780011040B0C0384028B038C22F0F3010A0476
:101F880023F00A01120C0B041B0C42EA0C118AB252
:101F980043F0010C16434CEA050506830584018BC2
:101FA80021F00C031A04110C0183038B9AB2174316
:101FB8000783BDE8F0017047B0F820C00F89CC88CE
:101FC8002CF001010B04190C0184038BB0F820C01C
:101FD80023F0F3010B04190C2CF00A031B0441EA4B
:101FE800071C1FFA8CF11B0C48F001080A4343EA4E
:101FF800080C0283A0F820C0018B21F00C031A04FE
:10200800110C0183038B1FFA83FC4CEA0402028340
:10201800018C21F010031A04110C0184038BB0F811
:1020280020C023F4407211052CF0A0030A0D1904F6
:1020380042EA07320B0C43F0100391B241EA06263C
:1020480043EA051506830584B0F818C02CF44062ED
:1020580011040B0C0383028B91B241EA042404831C
:10206800A7E700BF406B7047806B7047C06B704735
:10207800006C7047028B22F00C031A04130C0383C4
:10208800B0F818C01FFA8CF241EA020303837047C4
:10209800028B22F440631A04130C0383B0F818C0AF
:1020A8001FFA8CF242EA012303837047828B22F0E5
:1020B8000C031A04130C8383B0F81CC01FFA8CF2AB
:1020C80041EA020383837047828B22F440631A0437
:1020D800130C8383B0F81CC01FFA8CF242EA012368
:1020E800838370470B88B1F802C08A89F0B48F885F
:1020F800CE880D894C894CEA030C4CEA070141EA69
:10210800060343EA050C4CEA040141EA0203A0F87D
:102118004430F0BC704700BF0023038043808380B5
:10212800C380038143818381704700BFB0F8443086
:1021380021B95B045A0CA0F8442070476FEA434168
:102148006FEA5143A0F84430704700BF838829B92B
:1021580023F004010B041A0C8280704799B241F0F5
:1021680004038380704700BF838829B923F00101E5
:102178000B041A0C8280704799B241F001038380E6
:10218800704700BF83899BB21AB923EA0102828192
:10219800704719438181704781827047038A1942C9
:1021A8000CBF002001207047C9430182704700BF5F
:1021B800038A828911420CBF0020012019420CBFFA
:1021C800002000F001007047C9430182704700BF3A
:1021D8000A43A0F84820704783899BB21AB923EABA
:1021E800010282817047194381817047838829B928
:1021F80023F008010B041A0C8280704799B241F051
:1022080008038380704700BFB0F808C02CF00702AD
:1022180011040B0C03817047028922F070031A0421
:10222800130C41EA030CA0F808C0028991B241F0EE
:1022380007030381704700BF602930B4048C29D09C
:1022480024F0010425042C0C0484058BB0F820C06C
:1022580025F0F30425042CF00A0424042D0C240C86
:1022680045F0010544F0010445EA031322430383C2
:102278000284B0F808C02CF0700213041A0C41EA6A
:10228800020CA0F808C003899AB242F00701018144
:1022980030BC704724F010052C04250C0584048BF1
:1022A800B0F820C024F440752CF0A0042D052404B7
:1022B8002D0D240C45F4807544F0100445EA0333D1
:1022C80044EA021203830284D3E700BF10B40489EE
:1022D8005FFA84FC41EA0C0142EA010444EA03245F
:1022E8000481018921F077031A04110C41F0770366
:1022F800038110BC704700BF10B404895FFA84FCE6
:1023080041EA0C0142EA010444EA032404810289F7
:1023180091B241F48043038110BC7047B0F808C003
:102328002CF0700213041A0C41EA0203038170476F
:10233800828822F070031A04130C8380B0F804C05A
:102348001FFA8CF241EA020383807047028922F067
:1023580007031A04130C0381B0F808C01FFA8CF2A3
:1023680041EA020303817047028922F080031A04BC
:10237800130C0381B0F808C01FFA8CF241EA02037B
:102388000381704710B404895FFA84FC41EA0C01A8
:1023980042EA010444EA0324048110BC704700BFE8
:1023A800B0F808C070B4058B068C25F4407424F08E
:1023B800030426F022052E0424042CF00705360C0D
:1023C8002D04240C16432D0C44F4807446EA03169D
:1023D800294344F0010401810483068470BC7047DA
:1023E800838829B923F080010B041A0C8280704776
:1023F80099B241F080038380704700BFA0F8501065
:10240800704700BF08B54FF44053C4F20103984227
:1024180018D04FF46051C4F2000188421ED04FF426
:102428007052C4F20002904200D008BD01214FF45E
:102438000040FEF70DFE4FF400400021BDE80840C3
:10244800FEF706BE01214FF48050FEF70FFE4FF451
:1024580080500021BDE80840FEF708BE01214FF476
:102468008040FEF7F5FD4FF480400021BDE80840AC
:10247800FEF7EEBD2DE9F0070B88B1F802A0B1F820
:102488000490B1F80680B1F808C04F898E89CC89CC
:102498000A8A05884AEA030343EA090141EA08036C
:1024A80043EA0C0141EA070343EA060C05F44151EB
:1024B8004CEA040341EA030CA0F800C0818B21F424
:1024C800006319040B0C83830282BDE8F007704790
:1024D800B0F81CC08A682DE9F0032CF47A6727F05D
:1024E8001F0635042C0C02238483022A0384868B5E
:1024F80064D04FF46057C4F202078C88BB68002C84
:102508000CBF4FF0010C4FF0020C1D0248BFBD6814
:102518004FF46053C4F2020344BF25F40005BD60C4
:10252800D3F88480D3F88470D3F80490CB8847F626
:10253800400509F03F09C0F27D15B5FBF9F5C8F370
:10254800881808FB05F5C7F30277B3F5007FB5FBDC
:10255800F7F536D04FEA4C17B5FBF7F505EB8505CF
:102568006F00B7FBF2F56F1D4CF6CD421FFA87FCE2
:10257800CCF6CC42A2FB0C75EA085508AF1E1FFA30
:1025880087FC02F00102BCF1FD0F94BF45EA02226C
:102598000222B1F800C04F888D8946EA0C0141F447
:1025A800006C4CEA070141EA050C1FFA8CF1134351
:1025B8000C4303848483BDE8F00370478C88CB8880
:1025C800E7E72D0ACAE700BF002107230180418001
:1025D8008180C180018141818181C18103827047ED
:1025E80000230222038043808380C380826083812A
:1025F800704700BF038829B923F040010B041A0C67
:102608000280704799B241F040030380704700BFD1
:10261800838B29B923F480610B041A0C82837047D9
:1026280099B241F480638383704700BF028822F423
:1026380000631A04130C0380B0F800C01FFA8CF270
:1026480041EA020303807047B1F5804F038805D043
:1026580023F480410B041A0C0280704799B241F4AC
:1026680080430380704700BF4FF6FF639942038899
:1026780004D09AB242F480710180704723F48072CA
:1026880011040B0C03807047838829B923F00401D7
:102698000B041A0C8280704799B241F004038380BE
:1026A800704700BF838829B923F010010B041A0C66
:1026B8008280704799B241F010038380704700BF51
:1026C800B0F81CC00A8870B44E888D888C892CF4A8
:1026D8007A6121F01F0319040B0C02218383018402
:1026E800A2F50073B0F81CC0594241EB03014CEA53
:1026F800060343F4006C4CEA050343EA040C002A81
:1027080008BF41F001011FFA8CF343EA01228283DA
:1027180070BC7047808980B2704700BF8181704764
:10272800038829B923F400510B041A0C028070475E
:1027380099B241F400530380704700BF028891B2F8
:1027480041F4805303807047012915BF008B808AAC
:1027580080B280B2704700BF008A80B2704700BF65
:1027680083889BB21AB923EA010282807047194311
:10277800818070470123090903FA01F1838889B22E
:102788009BB222B923EA010CA0F804C0704741EAC1
:1027980003028280704700BF038919420CBF0020E2
:1027A80001207047C9430181704700BF10B4848875
:1027B8000089012201F00F0C80B202FA0CF31840D4
:1027C800A4B206D0090902FA01F214420CBF002093
:1027D800012010BC704700BF01F00F0C012303FA61
:1027E8000CF2D143018170474FF47053C4F20103D6
:1027F8004FF6FF710022C0F27F011A605A609A609A
:10280800DA605961704700BF837970B443B34FF4FD
:102818007053C4F2010301681E6802794579CC43FC
:1028280026401E605E6802F1804C0CF59E323440F2
:102838005C6014682143116002689868D1430840BD
:102848009860D868102D01EA0001D96016D005F10A
:10285800804505F59E35286840EA02032B600BE0A9
:102868000279016802F1804000F59E3CDCF80030F6
:1028780023EA0102CCF8002070BC7047996841EA4D
:1028880002009860D96841EA0200D860F4E700BF06
:1028980000230C220360037142718371704700BFEB
:1028A8004FF47053C4F20103196940EA01021A6136
:1028B800704700BF4FF47051C4F201014B691842D0
:1028C8000CBF0020012070474FF47053C4F201037D
:1028D800586170474FF47051C4F201010A684B699E
:1028E800034004D010420CBF002001207047184656
:1028F800704700BF4FF47053C4F20103586170472A
:1029080008B501214FF48070FEF7B0FB4FF48070DA
:102918000021BDE80840FEF7A9BB00BFD0F804C0FD
:102928000B684A792CF0407CF0B42CF4807C0D794B
:10293800CF680C698E684CEA030343EA05254560B5
:1029480085684FF2FD7CCCF2FF0C3C4305EA0C0392
:10295800344344EA030C4CEA420383600A7DC16AAB
:10296800531E21F47002D9B242EA0153C362F0BC8B
:10297800704700BF0021012301600171417181602E
:10298800C16001610375704770B44FF40C5290E850
:102998004200C4F2010285685468C06846EA010C26
:1029A80043F2E003CFF6FC734CEA0501014304EA65
:1029B800030C41EA0C03536070BC704700230360AA
:1029C80043608360C3607047836819B923F00101CD
:1029D8008160704743F0010383607047436823F4C4
:1029E800400C2CF4007241EA02034360704700BFB8
:1029F80041628262704700BF436823F01F0241EAC8
:102A080002034360704700BF4FF40C53C4F2010344
:102A18005A6818B922F400005860704742F400025E
:102A28005A6070474FF40C53C4F201035A6818B93E
:102A380022F480005860704742F480025A60704760
:102A4800092970B421D901EB41041E3CC668072549
:102A580005FA04F526EA050503FA04F445EA040331
:102A6800062AC36020D90C2A02EB82022BD9C46A39
:102A7800413A1F2303FA02F324EA030C01FA02F293
:102A88004CEA0201C16270BC7047066901EB41045F
:102A9800072505FA04F526EA050503FA04FC45EAC4
:102AA8000C03062A0361DED8013A446B02EB820C60
:102AB8001F2303FA0CF224EA020301FA0CF143EA99
:102AC80001024263DFE7046B233A1F2303FA02F390
:102AD80024EA030C01FA02F24CEA02010163D2E78C
:102AE800816841F080438360704700BF8068C0F30D
:102AF80080507047836819B923F4806181607047FA
:102B080043F4806383607047836819B923F0020136
:102B18008160704743F00203836070474A1E416832
:102B280021F4604343EA423141607047436819B970
:102B380023F400614160704743F4006343607047C9
:102B4800C06C80B2704700BF42F20833C4F2010380
:102B580018687047836819B923F4807181607047D9
:102B680043F4807383607047836819B923F4007154
:102B78008160704743F40073836070474FF40C53CF
:102B8800C4F201035A6818B922F40050586070471B
:102B980042F400525A607047092970B421D8066976
:102BA80001EB4104072505FA04F526EA050503FAB1
:102BB80004FC45EA0C030361836BC3F3015CCCEBB3
:102BC8000202941CE2B202EB820C1F2404FA0CF4F9
:102BD80023EA040301FA0CF243EA0201816370BCA0
:102BE800704701EB4104C6681E3C072505FA04F549
:102BF80026EA050503FA04F445EA0403C360DBE7A3
:102C08004A1E816B21F4401343EA025181637047E5
:102C180082B0002301930190019BC8180190019B89
:102C28001A6002B0704700BF836823F4702241EA3B
:102C380002038360704700BF836823F4401241EAAF
:102C480002038360704700BF816841F4800383609A
:102C5800704700BF8068C0F380507047436819B957
:102C680023F480614160704743F480634360704798
:102C7800436819B923F480514160704743F4805385
:102C88004360704782B0002301930190019A283273
:102C980051180191019B186880B202B0704700BFBB
:102CA8000123C9B203FA01F143681AB923EA010101
:102CB8004160704741EA0302426070470368194265
:102CC8000CBF002001207047C9430160704700BF56
:102CD8004368006810EA112007D0C8B2012202FA3E
:102CE80000F119420CBF0020012070476FEA112142
:102CF8000160704708B501214FF48040FEF7B6F92E
:102D08004FF480400021BDE80840FEF7AFB900BF8E
:102D18004FF46053C4F201031860704730B44FF4A5
:102D280060538D08C4F20103AA1C01F0030153F893
:102D3800225089000F2404FA01FC25EA0C0443F808
:102D4800224053F8224000FA01F10C4343F8224094
:102D580030BC7047DC23C4F227231860704700BFDB
:102D68004FF48063C4F22723186070474FF4605310
:102D7800C4F20103186AC0F300207047016846F2E4
:102D88001002002321F00101C4F202020160036075
:102D980043608360C36003612123904243616DD027
:102DA80046F2280CC4F2020C60456ED046F240018F
:102DB800C4F20201884270D046F2580CC4F2020CE8
:102DC800604572D046F27001C4F20201884274D0A4
:102DD80046F2880CC4F2020C604577D046F2A00196
:102DE800C4F20201884240D046F2B80CC4F2020C88
:102DF800604575D046F21041C4F20201884277D08E
:102E080046F2284CC4F2020C604578D046F24041A4
:102E1800C4F2020188427AD046F2584CC4F2020C3D
:102E280060457CD046F27041C4F2020188427ED0EF
:102E380046F2884CC4F2020C604500F0818046F2EC
:102E4800A041C4F20201884200F0848046F2B84CE6
:102E5800C4F2020C604501BF4FF4C84CC4F2020C26
:102E68004FF03D52CCF80C2070474FF4C040C4F2EC
:102E780002000022C2F23D02C26070474FF4C04017
:102E8800C4F202003D22826070474FF4C043C4F28E
:102E980002034FF47461996070474FF4C040C4F264
:102EA80002004FF47412826070474FF4C043C4F2BA
:102EB80002034FF07461996070474FF4C040C4F248
:102EC80002003D22C2F20002C26070474FF4C043C4
:102ED800C4F202034FF47461C2F20001D960704772
:102EE8004FF4C043C4F202034FF03D51D96070471C
:102EF8004FF4C840C4F202003D22826070474FF48C
:102F0800C843C4F202034FF47461996070474FF4E8
:102F1800C840C4F202004FF47412826070474FF444
:102F2800C843C4F202034FF07461996070474FF4CC
:102F3800C840C4F202003D22C2F20002C2607047DB
:102F48004FF4C843C4F202034FF47461C2F20001A3
:102F5800D96070474FF4C840C4F202000022C2F2A0
:102F68003D02C260704700BF2DE9F00F0368D1F839
:102F78000090D1F80CA0D1F81480D1F818C0CF690E
:102F88000E6A4D6A8C6A4A6BD1F838B086B00193E4
:102F98000B6B0493CB6A05930B6902934B688968A2
:102FA80003934AEA090343EA080343EA0C033B4351
:102FB80043EA060949EA050545EA040C4CEA020316
:102FC80048F23F08019ACFF21C0843EA0B0502EACF
:102FD800080845EA080404604369049A059C23F03C
:102FE800070542EA040C4CEA0502039B029D426174
:102FF80045608360C16006B0BDE8F00F704700BF50
:103008000023036043608360C3600361436183619D
:10301800C361036243628362C3620363436383637E
:10302800704700BF036819B923F0010101607047B8
:1030380043F0010303607047036819B923F40041A2
:103048000160704743F4004303607047036819B98F
:1030580023F020010160704743F0200303607047AC
:1030680041607047406880B2704700BF036822B96A
:1030780023F4002202600161704743F400230360D7
:1030880001617047036819B923F480210160704712
:1030980043F48023036070470AB9C1607047016137
:1030A800704700BF0068C0F3C0407047006800F078
:1030B80001007047406900F03800704710B44FF4C1
:1030C800C84246F20F444FF4C04CC4F20202C4F2A4
:1030D8000204C4F2020CA04288BF94468A0040F65B
:1030E8007D704CBFDCF80420DCF80020C0F67D7051
:1030F80001EA000313420CBF0020012010BC7047F6
:1031080030B44FF4C84246F20F444FF4C043C4F2FF
:103118000202C4F20204C4F20203A04288BF1346AA
:1031280088004BBF40F67D7240F67D75C0F67D7213
:10313800C0F67D754BBF0A400D40DA609D6030BC1B
:10314800704700BF0B0604D543697AB143F080038A
:103158004361802906D0036801F01E011AB923EAE9
:1031680001020260704719430160704723F0800331
:103178004361EEE740F63C7C30B44FF4C04246F27F
:103188000F454FF4C844C0F63C7CC4F20205C4F2B3
:103198000204C4F2020201EA0C03A84288BF2246D4
:1031A800D3B1036803F01E0000EAD1208B0040F67B
:1031B8007D734CBF52681268C0F67D7301EA030C38
:1031C8001CEA020F0CBF0021012100280CBF0020BF
:1031D80001F0010030BC7047406900F08000E5E76D
:1031E80030B44FF4C84C46F20F444FF4C043C4F215
:1031F8000204C4F2020CC4F20203A04288BF634670
:103208008A004BBF40F67D7240F67D75C0F67D7230
:10321800C0F67D754BBF0A400D40DA609D6030BC3A
:10322800704700BF08B501214FF00050FDF710FFAF
:103238004FF000500021BDE80840FDF709BF00BF6E
:1032480070B491E860004FF4E8438C68CA68C4F22F
:10325800000335432C431E6840F6FE7101FA00F561
:10326800224326EA050502FA00F145EA0100186042
:1032780070BC70470023036043608360C36070477D
:103288004FF4E843C4F200031A6831B9012101FA86
:1032980000FC22EA0C021A607047012101FA00F1D1
:1032A80041EA0200186070474FF4E843C4F2000393
:1032B80000095A6831B9012101FA00FC22EA0C021E
:1032C8005A607047012101FA00F141EA0200586092
:1032D800704700BF4FF4E843C4F200035A6818B9B6
:1032E80022F003005860704742F003025A607047AA
:1032F8004FF4E843C4F2000301FA00F122B91A6856
:1033080022EA0100186070471A6811431960704773
:1033180082B04FF4E843C4F2000300220192019303
:10332800019A083210180190019B196002B0704789
:1033380082B04FF4E843C4F20003002201920193E3
:10334800019A143210180190019B196002B070475D
:1033580047F220430828C4F200030CBF42EA0121C7
:1033680042EA0141C150704782B04FF4E84300215E
:10337800C4F2000301910193019A2C3202EB9001EF
:103388000191019B186880B202B070474FF4E8437E
:10339800C4F200031A6839B94FF4805101FA00F0F9
:1033A80022EA00021A6070474FF4805C0CFA00F1C0
:1033B80041EA0200186070474FF4E843C4F2000382
:1033C80001FA00F122B91A6822EA01001860704770
:1033D8001A681143196070474FF4E842C4F20002BA
:1033E80001FA00F1536B19420CBF0020012070470D
:1033F8004FF4E843C4F2000301FA00F1596370473F
:103408004FF4E843C4F2000301FA00F11A68586B5C
:10341800084003D011420CBF00200120704700BFB4
:103428004FF4E843C4F2000301FA00F1596370470E
:1034380008B54FF4A843C4F20003984218D04FF4DB
:10344800B041C4F2000188421ED04FF4B842C4F221
:103458000002904200D008BD01214FF40000FDF7A2
:10346800F7FD4FF400000021BDE80840FDF7F0BD6E
:1034780001214FF40010FDF7EBFD4FF4001000217F
:10348800BDE80840FDF7E4BD01214FF48000FDF7D9
:10349800DFFD4FF480000021BDE80840FDF7D8BDEE
:1034A80070B5044684B0A28868460D4622F03F06EF
:1034B800FDF7CAFC02982A684DF68363C4F21B33F1
:1034C8003604A3FB0031360C890C41EA0603A380BD
:1034D800B4F800C02CF00106330448F2A066C0F22C
:1034E80001061B0CB242238028D85300B0FBF3F02E
:1034F80080B201312184032898BF0420A083B4F846
:1035080000E0A8886E892989B5F80CC01FFA8EF2E8
:1035180042F001032380B4F800E02EF4806222F028
:103528000A031A04120C46EA000342EA030E41EAAF
:103538000C00A4F800E0208104B070BDEB884BF6C5
:10354800FF7E73451DBF02EB820202EB8202B0FBD5
:10355800F2F002EB420216BF80B2B0FBF2F040F488
:1035680080400205160D0EB940F001004FF4967325
:1035780044F6D35603FB01F2C1F2620686FB02232E
:103588009E096FEA404C711C6FEA5C402184B5E7E4
:1035980041F28833002103604BF6FF724FF48043F9
:1035A8008180C2800181418183817047038829B964
:1035B80023F001010B041A0C0280704799B241F004
:1035C80001030380704700BF038829B923F4807181
:1035D8000B041A0C0280704799B241F4807303807F
:1035E800704700BF038829B923F400710B041A0C33
:1035F8000280704799B241F400730380704700BF9E
:103608001AB901F0FE010182704741F001010182FF
:10361800704700BF038829B923F480610B041A0C92
:103628000280704799B241F480630380704700BFFD
:10363800B0F80CC02CF0FE02130401F0FE011A0CC5
:1036480041EA020383817047838929B923F0010184
:103658000B041A0C8281704799B241F001038381EF
:10366800704700BF038829B923F040010B041A0CE6
:103678000280704799B241F040030380704700BF51
:10368800038819B95B045A0C028070476FEA4341FA
:103698006FEA514303807047038829B123F0800102
:1036A8000B041A0C0280704799B241F08003038022
:1036B800704700BFB1F5804F838B05D023F480425B
:1036C80011040B0C838370479BB243F4804CA0F821
:1036D8001CC07047B1F5006F038805D023F4006162
:1036E8000B041A0C0280704799B241F400630380FE
:1036F800704700BFB1F5005F038805D023F400517F
:103708000B041A0C0280704799B241F400530380ED
:10371800704700BF038829B923F010010B041A0C65
:103728000280704799B241F010030380704700BFD0
:1037380001827047008AC0B2704700BF038829B968
:1037480023F480510B041A0C0280704799B241F49B
:1037580080530380704700BFB1F5006F038805D020
:1037680023F400610B041A0C0280704799B241F4EB
:1037780000630380704700BF038829B923F0200144
:103788000B041A0C0280704799B241F020030380A1
:10379800704700BF008BC0F307207047838829B9A2
:1037A80023F400610B041A0C8280704799B241F42B
:1037B80000638380704700BF838829B923F4805150
:1037C8000B041A0C8280704799B241F480538380AD
:1037D800704700BF82B0002301930190019A8918B5
:1037E8000191019B188880B202B0704783889BB210
:1037F8001AB923EA01028280704719438180704711
:10380800B0F814C0038B1FFA8CF242EA034000EAB6
:10381800010C2CF07F428B1A584240EB0300704792
:10382800828A038B91B241EA034020F07F407047BF
:1038380082B000230A0F0093019301900092009B2D
:1038480021F07F4153B10198143001900198036829
:1038580019420CBF0020012002B07047019A1832AB
:10386800090C0192F2E700BFC9438182704700BF8B
:103878008388828A90B208409BB206D001F0E0614A
:1038880013EA11410CBF002001207047C94381820F
:10389800704700BF4FF47053C4F2020318707047AA
:1038A8004FF47053C4F202031A6818B922F48070F6
:1038B8001860704742F480721A6070474FF4705372
:1038C800C4F202031A6818B922F40070186070472D
:1038D80042F400721A6070474FF47053C4F2020346
:1038E8001A6818B922F480601860704742F4806240
:1038F8001A6070474FF47053C4F20203186840F41A
:1039080000621A60704700BF4FF47053C4F202039C
:10391800186840F480521A60704700BF4FF4705323
:10392800C4F202031A69002A09DA40F2231148F6A0
:10393800AB10C4F26751CCF6EF505960586070472D
:103948004FF47053C4F20203186940F000421A6140
:10395800704700BF4FF47053C4F202035A69D2078C
:1039680009D542F63B2146F67F60C0F61901C4F638
:103978005D409960986070474FF47053C4F2020339
:10398800586940F001025A61704700BF43F614437A
:10399800C4F202031A7802F0F30C83F800C0197815
:1039A80040EA01021A7070474FF47053C4F20203E0
:1039B8005869C0F34710704743F61643C4F2020330
:1039C800188880B2704700BF43F61543C4F202035B
:1039D8001878AA3818BF0120704700BF43F614436F
:1039E800C4F20203187800F00C0070474FF47053CB
:1039F800C4F202031A6919B922EA00011961704771
:103A080010431861704700BF4FF47051C4F20201AF
:103A1800CB6818420CBF0020012070474FF4705348
:103A2800C4F20203D86070474FF47053C4F2020323
:103A3800DA68D0030AD4D868C10601D505207047D2
:103A4800D96811F0EF0F03D00620704701207047A6
:103A5800DB6813F0020F0CBF08200720704700BF77
:103A680000B583B008238DF80730FFF7DDFF8DF828
:103A780007009DF807000128F7D09DF8070003B05C
:103A880000BD00BF43F61443C4F20203187840F0A7
:103A980002021A70FFF7E4BF70B504460D461646D9
:103AA800FFF7DEFF08280AD143F61443C4F20203E5
:103AB800187800F00F02144325432E431E7070BD82
:103AC80010B50446FFF7CCFF082802BF43F615439C
:103AD800C4F202031C7010BD38B504460D46FFF74A
:103AE800BFFF082800D038BD43F61643C4F20203CE
:103AF8001A8815B914431C8038BD92B222EA04040E
:103B08001C8038BD70B504460E46FFF7A9FF08288B
:103B180000D070BD4FF47055C4F20205286920F436
:103B2800407129612B692B612A6942F001002861E3
:103B38002670FFF795FF296921F001032B6170BDFD
:103B480070B504460E46FFF78BFF082800D070BDFD
:103B58004FF47055C4F202052A6922F440702861B6
:103B6800296941F480732B612A6942F001002861B8
:103B78002680FFF775FF296921F001032B6170BDCD
:103B880070B504460E46FFF76BFF082800D070BDDD
:103B98004FF47055C4F202052A6922F44070286176
:103BA800296941F400732B612A6942F001002861F8
:103BB8002660FFF755FF296921F001032B6170BDCD
:103BC800F8B5064614461D46FFF74AFF082800D0F8
:103BD800F8BD4FF47057C4F202073A6922F44070F6
:103BE8003861396941F440733B613A6942F0010038
:103BF8003861C6E90045FFF733FF396921F0010351
:103C08003B61F8BD38B50446FFF72AFF54B1012CD3
:103C180008BF4FF4807405D0022C14BF4FF44074D1
:103C28004FF40074082800D038BD4FF47055C4F222
:103C380002052B6923F440722A61286904432C6128
:103C4800296941F004032B612A6942F48030286114
:103C5800FFF706FF296921F004032B6138BD00BF77
:103C680070B505460E4649B1022914BF4FF4407697
:103C78004FF40076012908BF4FF48076FFF7F0FE75
:103C8800082800D070BD4FF47054C4F202042069B3
:103C980020F440732361226916432661216921F0CB
:103CA800F8002061236943F0020215432561216968
:103CB80041F480302061FFF7D3FE236923F002022C
:103CC8002261216921F0F803236170BD4FF46D432F
:103CD80040F0BE61CEF2000341F42020D860704766
:103CE800C37830B47BB900784FF4614C410900F0D7
:103CF8001F02CEF2000C2031012303FA02F04CF827
:103D0800210030BC70474FF46D45CEF20005427873
:103D1800EC6885780178E343C3F30223C3F1040414
:103D28005FFA84FC02FA0CF40F2242FA03FC0CEA54
:103D380005024FF4614CCEF2000CE4B2614442EA51
:103D480004031A0181F8002302784FF4614C5109E9
:103D5800CEF2000C02F01F03012000FA03F24CF827
:103D68002120CEE721F0604C4FF46D432CF07F0208
:103D7800CEF2000342EA0001996070474FF46D43A8
:103D8800CEF200031A6919B922EA000119617047D5
:103D980010431861704700BF4EF21003CEF20003C3
:103DA80004281A680CBF42F0040222F004021A60C8
:103DB800704700BF38B540F29C04C2F200044FF4CB
:103DC80080530546236003E02068421E226040B30A
:103DD8004FF44050C4F201000221FEF7DDFC002838
:103DE800F2D04FF440502946C4F20100FEF796FC89
:103DF8004FF48051216003E02368581E206083B18E
:103E08004FF44050C4F201000121FEF7C5FC002820
:103E1800F2D04FF44050C4F20100FEF77BFCC0B270
:103E280038BDFCF7AFFAC0B238BD00BFF8B50446DC
:103E38000E464FF480500821012A1546C4F20200AC
:103E480028D9FDF727FB46F04000FFF7B3FF013DF7
:103E5800661CEB0716FA85F70ED520783446FFF76F
:103E6800A9FF01362078FFF7A5FFBE4209D03078B8
:103E7800FFF7A0FF741C661C2078FFF79BFFBE426B
:103E8800F5D14FF48050C4F202000821BDE8F84093
:103E9800FDF7FEBAFDF7FEFA3046FFF78BFF002D5F
:103EA800D5D1EEE72DE9F04F89B00025074601216D
:103EB8004FF480508DF81F50FDF792F8012001460D
:103EC800FDF756F810200121FDF752F810200121C6
:103ED800FDF74EF8AB4610200121FDF749F8C4F272
:103EE800020B05210A46584608ACFDF7E3FA584686
:103EF80006210522FDF7DEFA4FF020080522584674
:103F08000721FDF7D7FA44F80C8D4FF002095846FF
:103F180021468DF818908DF81A508DF81B908DF861
:103F280019904FF4405AFDF7CFF98023584621469F
:103F38000593C4F2010AFDF7C7F940262146584601
:103F48000596FDF7C1F95046FEF75CFA4FF400728A
:103F580007234FF0080B69465046ADF80A204FF486
:103F680080564FF48272ADF81030ADF80220C4F2DA
:103F78000206ADF80050ADF80450ADF80650ADF8A3
:103F88000850ADF80CB0ADF80E50FEF773FA504675
:103F98000121FEF72FFB4FF0010A30462146CDF8EC
:103FA80014B08DF818A08DF81A508DF81990FDF7F7
:103FB8008BF930465946FDF76BFA30462146CDF865
:103FC80014A08DF818508DF81A508DF819908DF8A6
:103FD8001B50FDF779F930462146CDF81490FDF7CE
:103FE80073F997F801C03C78F8783979BA7844EAD7
:103FF8000C0343EA000C4CEA01010DEB080041EA0E
:10400800020300F8013D41465246FFF70FFF09B091
:10401800BDE8F08FF8B504460E464FF480500821ED
:10402800012A1546C4F202002CD9FDF733FA46F0EE
:10403800C000FFF7BFFE013D661CEA0716FA85F7C8
:1040480011D50020FFF7B6FE20700020FFF7B2FE62
:1040580034460136BE4220700BD00020FFF7AAFE7E
:10406800741C3070661C0020FFF7A4FEBE4220704E
:10407800F3D14FF48050C4F202000821BDE8F840A3
:10408800FDF706BAFDF706FA46F08000FFF792FE44
:10409800002DD0D1EDE700BF00B583B00DF10700CA
:1040A80021210122FFF7B6FF9DF807100DF1070047
:1040B80041F04003012221218DF80730FFF7B6FEB9
:1040C80003B000BD10B582B02021012204460DF1D5
:1040D8000700FFF79FFF9DF8070020F020031C430F
:1040E8000DF10700202101228DF80740FFF79EFE01
:1040F80002B010BD10B582B02021012204460DF196
:104108000700FFF787FF9DF8070000F07F031C43B7
:104118000DF10700202101228DF80740FFF786FEE8
:1041280002B010BD10B582B02021012204460DF165
:104138000700FFF76FFF9DF8070020F040031C43BE
:104148000DF10700202101228DF80740FFF76EFED0
:1041580002B010BD30B583B002AC002504F8015D93
:104168000546382120460122FFF754FF697895F863
:1041780000C0AA7841EA0C0040EA02033821204630
:1041880001228DF80730FFF751FE03B030BD00BFA4
:1041980030B583B002AC002504F8015D0546212145
:1041A80020460122FFF736FF68782A789DF807C075
:1041B800A97840EA020343EA01002CF02F0240EA02
:1041C80002032121204601228DF80730FFF72EFE39
:1041D80003B030BD10B582B02021012204460DF194
:1041E8000700FFF717FF292106226846FFF712FF8D
:1041F8009DF8073013F0200312D19DF900309DF986
:1042080002E09DF904C003EBC3010EEBCE020CEBF8
:10421800CC0049005200430084E80E0002B010BDF3
:10422800002BFBD09DF900309DF902E09DF904C0F8
:1042380003EBC3010EEBCE020CEBCC00C900D2009D
:10424800C30084E80E00E9E7FCE200080000002053
:10425800CC060020CC0600209416002070B58AB049
:10426800064600F04DF840F2A004C2F2000494F9AA
:1042780000300133054630D0304600F09BF8002866
:104288002BD03046002102F04BFF30B34EF288238A
:104298003046C0F6000301930123009300230893DE
:1042A80002F0DCF92478CDE90401CDE90201BCB1C2
:1042B8000020002102460B4602F04EFB022CCDE9FD
:1042C800060111D109F088EE21230360089B8BB900
:1042D800DDE9060102F028FC054628460AB070BD53
:1042E80000220023CDE90623684600F061F8002883
:1042F800ECD1E7E709F070EE089B0360E8E700BF40
:1043080020F000420346B2F1FF4F70B5044639D29F
:10431800002A35D000283FDBC115B2F5000F09D2BD
:1043280010F4000240D15B0001321802FBD5C2F143
:104338000102891823F07F43A1F17F0223F40003CF
:10434800D10743F4000348BF5B000026541019212D
:104358005B0035464FF08072A8189842DEBFC0EB6C
:1043680003038518B61852085B000139F4D113B15C
:1043780006F001039E197610E40506F17C56A4198F
:10438800204670BD014602F02DFD0146204602F090
:1043980021FC0446204670BD014602F019FC014686
:1043A80002F0D4FD0446EBE701228918C2E700BFFA
:1043B80000207047D0F1010338BF0023B0F1004F4F
:1043C80008BF43F001030BB102207047A0F50002BB
:1043D80000F1FF43B2F1FE4F2CBF00220122B3F1DE
:1043E800FE4F2CBF134642F001030BB10420704767
:1043F8004FF6FE73411EC0F27F0300F10042013AFE
:1044080099428CBF002101219A428CBF0B4641F092
:1044180001030BB10320704710F5000F14BF0023F0
:104428000123B0F1FF4F14BF184643F00100704755
:10443800D0F8E41510B5044608698047032384F8CA
:104448001231002010BD00BFD0F8E415042208B5D1
:1044580080F81221CB689847002008BD08B5D0F82D
:10446800E035DB6903B19847002008BDD0F8E015B6
:1044780008B50B6A9847002008BD00BFD0F8E015C2
:1044880008B54B6A9847002008BD00BF002110B549
:104498000B460446402201F0D5FB80214022002330
:1044A800204601F0CFFBD4F8E415A078012284F867
:1044B80012214B689847002010BD00BF10B582B08C
:1044C8006946044600F03AF99DF8001001F01F0310
:1044D800012B204611D0022B0BD033B101F0800103
:1044E80001F020FC002002B010BD694600F008FA77
:1044F800F8E7694600F05CF9F4E7694600F0E6F988
:10450800F0E700BF38B5044629B990F81131022BFD
:104518000DD0002038BDD0F8E0255369002BF8D025
:1045280090F812C1BCF1030FF3D19847F1E7D0F826
:104538003421D0F820319A4210D9C1780129D0F815
:104548002411C3EB020208BFC918C0F8342108BF00
:10455800C0F8241192B200F0A5F8DAE7D0F83821B3
:10456800B2FBF3F503FB15255DB9934209D8D0F8E2
:104578003C319A4205D22A4600F094F8C4F83C51DE
:10458800C7E7D4F8E005C36823B194F812C1BCF1B9
:10459800030F03D0204600F0B9F8BAE72046984741
:1045A800F8E700BF10B5044629B990F81131032B7C
:1045B8000DD0002010BDD0F8E0259369002BF8D06D
:1045C80090F812C1BCF1030FF3D19847F1E7D0F886
:1045D8008C23D0F878339A4212D9C1780129D0F8BF
:1045E8007C13C3EB020204BFC918C0F87C13C0F8DF
:1045F8008C239A4228BF1A4692B200F06DF8D8E789
:10460800D0F8E0351B6923B190F812C1BCF1030F53
:1046180003D0204600F06AF8CBE79847F9E700BFD7
:104628002DE9F041069D044616461F468846FCF7CC
:104638007DFA20464146C4F8E075C4F8E455C4F84C
:10464800E86501F0A9FAD4F8E4050368984720461C
:10465800BDE8F041FCF7C0BA00207047D0F8E0355B
:1046680010B504461A689047D4F8E405836898475B
:10467800002010BDD0F8E02508B553689847002001
:1046880008BD00BF13460A46022110B5C0F83831EC
:10469800C0F8343180F81111002101F027FB002007
:1046A80010BD00BF10B50C4613460021224601F08C
:1046B8001DFB002010BD00BF13460A46032110B59C
:1046C800C0F89033C0F88C3380F81111002101F044
:1046D800EFFA002010BD00BF10B50C4613460021AC
:1046E800224601F0E5FA002010BD00BF38B50021D0
:1046F800042504460A460B4680F8115101F0F6FAE3
:10470800204601F065F9002038BD00BF38B500210A
:10471800052504460A460B4680F8115101F0C8FAEF
:10472800204601F055F9002038BD00BF01EB810299
:1047380000EBC201B1F88803704700BF90F8C825A4
:104748000A7090F8C9354B7090F8CB2590F8CAC517
:10475800130263444B8090F8CD2590F8CCC5130222
:1047680003EB0C028A8090F8CF3590F8CE251B0217
:1047780003EB020C1FFA8CF20123CA80C0F83C211B
:1047880080F81131704700BF10B591F90030002B47
:10479800044609DBC98839B1002101F0C3FA204673
:1047A800BDE8104001F014B9802101F0BBFAF6E72A
:1047B80038B54B780A79012B0C4605460ED003D341
:1047C800032B1DD0002038BD90F81231022B09D0E0
:1047D800032B43D0FFF7D8FF002038BD90F81231E3
:1047E800022B29D1131C18BF0123802A0CBF0023D8
:1047F80003F00103002BE5D0114601F093FAE1E73D
:1048080090F81231022BEDD0032BE3D14B884BB932
:10481800111C18BF0121802A0CBF002101F00101E1
:10482800002944D1D5F8E03528469A6821469047B2
:104838002846FFF75BFFC5E7032BCBD14988002942
:10484800C0D1131C18BF0123802A0CBF002303F01A
:10485800010383BB2846FFF749FFB3E7130615D4C6
:1048680002EB820100EBC10292F87233C3B940F245
:10487800D06CC2F2000CCCF8003040F2D06128466F
:10488800C2F200010222FFF7FDFE9BE702F07F0E55
:104898000EEB8E0C00EBCC0090F81A31002BE6D012
:1048A80040F2D063C2F2000301201860E5E7114628
:1048B80001F038FAB6E7114601F054FAD5F8E015D8
:1048C80028468A6821469047C4E700BF38B590F863
:1048D8001231032B04460D4603D0FFF755FF002085
:1048E80038BD0A79012AF8D8D0F8E02593689847A6
:1048F800E8880028F3D12046FFF7F8FEEFE700BF6D
:1049080070B54B7882B00C460546092B16D8DFE8FF
:1049180003F01B301546155D79158F05A17840F217
:10492800D066C2F200060129317107D890F8123119
:10493800022B00F04281032B00F0CA802146FFF7CA
:1049480023FF002002B070BD90F81221911E0129AA
:10495800F4D8D0F8142140F2D061C2F20001002A44
:104968000CBF0123032341F80C3F0122FFF78AFE05
:10497800E7E790F81221911E0129DFD8B4F802C0A8
:10498800BCF1010FDDD1D0F8E01500228B68C0F82A
:104998001421214698472846FFF7A8FED1E76388E7
:1049A800012B00F0FB80022BCBD1A38813F0FF0F63
:1049B800C7D101691C0A4A68631E1046042B00F21D
:1049C8009E80DFE803F0A1ABA6B09800A388002B77
:1049D8003ED1E288002A3BD190F81211628803295F
:1049E800ACD002F07F0480F81341214601F0E8F9C9
:1049F8002846FFF77BFE002C00F0ED80022085F8AA
:104A080012019EE76288110A4B1E062B96D801A157
:104A180051F823F0B74A0008794A0008634A0008A9
:104A28004549000845490008454900084549000826
:104A3800E288012A82D190F81231022B00F0B98065
:104A4800032B7FF47BAF00F58871FFF71BFE78E737
:104A580028462146FFF798FE73E75FFA82FCBCF10F
:104A6800050F3FF66BAFDFE80CF090877E756C633F
:104A7800D0F8E01580788B6A0DF10601984702227C
:104A880042700146C5F8EC05BDF80630002B3FF42E
:104A980058AFE288002A3FF454AF934228BF134628
:104AA80028461A46ADF80630FFF7ECFD49E7D0F87E
:104AB800E83580781A680DF106019047E288402AA7
:104AC800014603D095F812010128DDD10823E1E75A
:104AD800002900F0848090F81011012966D0FFF7B2
:104AE800C9FD3179284685F81011FFF7B7FD28462A
:104AF800FFF7FCFD25E7052363F3061002464A602D
:104B08002846FFF7F3FD1CE7012262F30610024670
:104B1800F5E7032464F306100246F0E7022363F383
:104B280006100246EBE7042262F306100246E6E7A7
:104B3800D0F8E81580788A690DF10601904701469A
:104B4800A2E7D0F8E83580785A690DF10601904758
:104B5800014699E7D0F8E81580780B690DF1060150
:104B68009847014690E7D0F8E8258078D3680DF19A
:104B780006019847014687E7D0F8E81580788A68E3
:104B88000DF10601904701467EE7D0F8E8358078B8
:104B98005A680DF106019047014675E7D0F8E0150F
:104BA800C0F814318B68214698472846FFF79EFDC8
:104BB800C7E61049FFF766FDC3E60029F6D00121D4
:104BC800032280F8101180F81221FFF747FD2846CC
:104BD800FFF78CFDB5E6012385F81231B1E6022313
:104BE80080F8123180F81011FFF744FD2846FFF7CE
:104BF8007DFDA6E6D806002030B4F8B10378002B76
:104C08001ED00446002314F8015F0133DBB2002DE7
:104C1800F9D15C00A31CDCB2138003220C704A702B
:104C280002785AB1022300255C1CE4B2CA540D551F
:104C380010F8012F0233DBB2002AF5D130BC7047DF
:104C480002242346E8E700BF432340F2D4000B8048
:104C5800C2F20000704700BF38B540F2E064C2F20B
:104C6800000423685A1C052B226001D0002038BD9F
:104C78002179002301292360F8D0A568E268B5F5F9
:104C8800006F04BF1D46A36040F2E063AA42C2F26F
:104C9800000324D034BFC5F50062C5EB02021A61D7
:104CA800D0F8EC35B3F83930934211D2E918D21A5A
:104CB800ADB2A160226140F6906CC2F2000C0CEB20
:104CC800050281210125257101F010F8002038BD69
:104CD800511900232361ADB2A16093B2EBE7002024
:104CE8001871C3E738B540F2380C01EB8104C2F201
:104CF800000C00EBC40140F648640546C2F200040B
:104D0800DCF81020B1F8881320469047D5F8EC3528
:104D1800284601212246B3F8403000F0C9FF0020A0
:104D280038BD00BF70B50B7813F060050C46064619
:104D380008D14B780A2B25D00B2B3FD0062B46D019
:104D4800284670BD202D03D0FFF71EFD022070BD40
:104D5800CD88002D49D01B061AD440F2D4064C78D1
:104D680040F2E06CC2F20006C2F2000C40F6886124
:104D7800C2F200012A467464CCF81450FFF79CFC78
:104D8800002070BD20490122FFF77CFC284670BD39
:104D980040F23800C2F2000040F68861836860780B
:104DA800C2F200012A46984740F688613046C2F2AE
:104DB8000001E288FFF766FC002070BD8B78FBB924
:104DC80040F2E061C2F2000118468B6170BD4B8869
:104DD800180A212803D1CA883A2A28BF3A2230461D
:104DE8000A49FFF74FFC002070BD40F23802C2F2BA
:104DF80000024878936829462A469847284670BD95
:104E0800FFF7C2FC284670BDF8060020E600002027
:104E180010B58121044600F035FF0121204600F03D
:104E280031FF8221204600F02DFF40F23800C2F207
:104E3800000043689847002010BD00BFD0F8EC255B
:104E480038B5044681210223B2F8392000F0FAFE71
:104E5800D4F8EC550121B5F840200223204600F093
:104E6800F1FE032382210822204600F0EBFE40F2E7
:104E78004C0C40F23802C2F2000CC2F200020221CD
:104E880000258CF804108CF8055010688047D4F879
:104E9800EC3540F6486220460121C2F20002B3F820
:104EA800403000F005FF284638BD00BF10B540F27D
:104EB800D404C2F20004606CFF2811D040F2380C10
:104EC80040F2E062C2F2000CC2F2000240F68861D1
:104ED800DCF808305269C2F200019847FF23636486
:104EE800002010BD38B540F2E061C2F200010B7934
:104EF800012B01D0002038BD0A69EAB1D0F8EC4591
:104F0800B4F839308C689A4210D8A3188B60002303
:104F18000B61A4B293B240F6906CC2F2000C8121EE
:104F28000CEB040200F0E2FE002038BD1D19D21A75
:104F3800A4B28D600A61EEE70A71002038BD00BF97
:104F480030B5054683B0002303200193FBF75AFED2
:104F5800EB681A694FF454640192C0F2030411E03B
:104F68000320FBF74FFEEB68196901910198013C9A
:104F780000280ADB0320FBF745FEEB681A69013CB1
:104F880001921FD0019A002AEADA019840F0010242
:104F980001920199196118694FF454620190C0F2A5
:104FA800030209E0186901900199013AC80706D57A
:104FB8001869013A019002D00199C907F2D4032077
:104FC800FBF720FE002003B030BD00BF10B4C4784A
:104FD800F4B900EB820003339B10D0F8D00017D04F
:104FE8000C685A1E046002F00104012293420FD09B
:104FF80024B14C6802229342046009D051F822403F
:105008000132046051F82240013293420460F5D124
:10501800002010BC704700BF0332921030B4D0F8A3
:10502800D04019D02068531E086003F00100012306
:105038009A420FD020B1206802239A42486009D0D2
:10504800256841F82350581C256802339A4241F8D4
:105058002050F5D101EB8201084630BC704700BFF3
:105068002DE9F00F0122002382704022012982B02D
:10507800C370828000F0B480002900F08E8002782E
:10508800417801924FF40062C36002614FF4606A94
:105098004FF488694FF4806B884679B39846024686
:1050A80008F510644FEA411C42F8184F2024ACF16F
:1050B800200308F530616445D163C3F3401108F556
:1050C80012631BD051B10246402442F81C3F08F538
:1050D80032616445D16308F514630FD0111D536024
:1050E8004034083203F5007703F1200503F508760C
:1050F80040336445CF634D60D663EFD1019AC0F861
:1051080014B0C0F8CC90002A40D0550108F5A0642E
:10511800A5F1200C02462D1908F5A463AB4242F80C
:10512800904FCCF340140FD034B1024642F8943F6C
:1051380008F5A863AB4207D003F120015360403360
:1051480091600832AB42F7D1019A08F580541303F5
:105158001D19A3F5805C024608F50053AB4242F8DE
:10516800D04FCCF3003411D034B1024642F8D43FCA
:1051780003F58053AB4209D0111D536003F58054E9
:1051880003F500530A1DAB424C60F5D1C0F80CA1E1
:10519800002002B0BDE8F00F704700230C244FF048
:1051A800060C4FF4606A4FF488694FF4806B4FF433
:1051B8000062C4F20403C1724FF4A061C18004709C
:1051C80080F801C0C4F2040A0194C4F20409C4F2CC
:1051D800040B6146C4F204029846C36002615EE7AC
:1051E80008244FF0040C4FF4A0784FF4606A4FF491
:1051F80088694FF4806B4FF400624FF0A043C1728E
:105208000221A0F806800172047080F801C0C5F27E
:10521800000A0194C5F20009C5F2000B6146C5F207
:1052280000029846D9E700BF38B5037A0025012B5C
:10523800044632D0C368DA6842F04001D960FFF70B
:105248007FFE227A617A032A14BF4FF480324FF42A
:10525800403242F4301309B142F47013E16814206B
:105268008B63FBF7EBFCE36894F808C0D868BCF1E3
:10527800030F08BF40F48030D860227A032A33D065
:10528800E378012B01BFE3689A6822F03E0242F0FE
:105298002A0208BF9A60002038BDC268417A936B21
:1052A80065F3104309B143F480139363D36823F47F
:1052B800800020F0500141F010036FF3C3036FF337
:1052C800C7136FF351436FF3D343D3602046FFF7FF
:1052D80037FEE0780128DED1052060F34405E16857
:1052E80045F020058D60CBE7186B012161F39B60C9
:1052F8006FF3D7502D2240F0805562F31645C82031
:105308001D63FBF79BFCE36845F400051D63C8209B
:10531800FBF794FCB4E700BFC368986840F001024B
:105328009A600020704700BFC368986820F00102A7
:105338009A600020704700BF00B583B00023019336
:10534800019A42F020030193019A61F38A120192B3
:10535800019BC268136111694FF454630191C0F253
:10536800030309E0116901910198013B800606D504
:105378001169013B019102D001988106F2D4032002
:10538800FBF740FC002003B000BD00BF00B583B0B0
:1053980000230193019941F010020192019BC26818
:1053A800136111694FF454630191C0F2030309E0DA
:1053B800116901910198013BC00606D51169013BAD
:1053C800019102D00198C106F2D40320FBF71AFC20
:1053D800002003B000BD00BFC26808B5D3686FF3F2
:1053E8005D736FF39E73012908BF43F0005302D029
:1053F80009B943F080433220D360FBF71FFC00203B
:1054080008BD00BFC368586900F00100704700BFBD
:10541800C068436913F0010F14BF002001207047D2
:10542800C368586900F00100704700BFC3685A6933
:1054380098691040704700BFC3685868704700BF3C
:1054480003691A6861F301021A60704710B4C368EF
:105458004FF4006400224FF0FF31C8F200049A6153
:105468005961596059619C6190F803C098699445E5
:1054780014BF1146102141F4872C4CF0081141F457
:10548800401C20EA0C0040EA0C019961104610BC4F
:10549800704700BFF8B5D0F80C51026900212960A7
:1054A8000446106861F3CC2010600B46E17A0129AC
:1054B80057D010212046FFF73FFF2046FFF766FF31
:1054C800256900224FF0FF302A616A61A861EA610C
:1054D8006378002B31D004F114001746FF2650F8EA
:1054E800043F1968C1F3076E0EF0800C5FFA8CF167
:1054F800002918BF4FF0904119601F619E606378C2
:1055080001329342EBD8C3B1002204F15000174690
:10551800FF2650F8043F1968C1F3076E0EF0800C9F
:105528005FFA8CF1002918BF4FF0904119601F6194
:105538009E60637801329342EBD82B6943F4807004
:105548002861E278012A07D140F20311C0F2010173
:10555800402262F3594129632046FFF777FF002074
:10556800F8BD1668E068C02780254FF4800167F30E
:105578000F0346F00306166065F31F4365F30F013A
:105588004FF4A07245628162C0F8043162F30F03E0
:105598006FF31F43C0F80831C0F80C3189E700BF2A
:1055A80001698B68C3F341014B1E022B9DBF4DF669
:1055B800E872C0F60002D05C032070470369826974
:1055C80098681168C0F34100022818BF6FF30A01F8
:1055D80002D1032060F30A011160596841F4807216
:1055E8005A600020704700BF70B44B780022012B2E
:1055F80026D00B7800EB8304012505FA03FC646DC3
:105608006CF31F422368C3F3072505F0800C5FFA8B
:105618008CF575B98E68CD78B1F806C066F30A03C3
:1056280065F393436CF3995343F0805343F400417B
:1056380021600069C1690A43C261002070BC7047DB
:105648000C7800EB840503FA04F363F30F02AC69EA
:10565800D8E700BF30B44A780023012A1C4613D08B
:105668000A7800EB8201012505FA02FC496D6CF30A
:105678001F4400696FF3CF330B60C36923EA040446
:10568800C461002030BC7047097800EB810502FA3C
:1056980001F262F30F04A969EBE700BFF0B44B789D
:1056A800012B35D00C784E6900EB84056B6D1C68B6
:1056B8001A69002E25D08F68F519013DB5FBF7F55D
:1056C800AD05AD0D65F3DC4207FB05F565F3120288
:1056D8001A61C378012B01BF0B780A6900EB8303B9
:1056E8005B6D08BF5A61CA78012A7AD00B7800EB43
:1056F800830C44F00444DCF854100C600020F0BC27
:1057080070478D6865F31202012565F3DC42DFE717
:105718000D784A6900EB8504A5692E682C69002A72
:1057280064D08B68CF7802EB030C0CF1FF3C62F37A
:105738001204BCFBF3F363F3DC44012F08BF67F3E7
:105748005E742C61C378012B61D091F803C0BCF161
:10575800010F53D05AB1036991F800C05D6B01275E
:1057680007FA0CF42C435C63CB78012B46D00B78FA
:1057780000EB830C46F00446DCF818301E60CB784A
:10578800012BBBD1C578CC680978002DB6D192B26F
:1057980000EB810003329210D0F8D010AED025680B
:1057A800501E012A0D6000F00100A7D020B16068EA
:1057B80002239A420860A1D054F8230001330860FC
:1057C80054F8230001339A42086097D054F8230014
:1057D8000133086054F8230001339A420860EBD182
:1057E8008CE74A793AB144F000547FE762F3120437
:1057F80063F3DC44A5E744F0805477E703699B68CA
:10580800DB0554BF46F0005646F08056AFE70B78EC
:105818000C6900EB830CDCF818305C61A4E700BF6E
:10582800F0B44B78012B82B036D00B784C6900EB82
:105838008306736D1A681D690095002C26D08E6842
:105848009DF800509DF802404E6166F3060501265A
:1058580066F3C4048DF800508DF80240009C1C616A
:10586800C378012B01BF0B780C6900EB83035B6DD8
:1058780008BF5C610B7800EB830C42F00441DCF854
:1058880054201160002002B0F0BC70479DF8005011
:105898009DF802408E68D8E782694C6915681669D8
:1058A8000096002C37D08B689C4293BF9DF800303F
:1058B8009DF800404B6164F306038CBF63F3060454
:1058C8008DF800309DF8023088BF8DF80040012423
:1058D80064F3C4038DF80230009B1361C378012B75
:1058E80001BF0B780C6900EB83039B6908BF5C61FF
:1058F80045F004431360C278002AC3D14A69002ADC
:10590800C0D003690A78596B012000FA02FC4CEAFE
:1059180001005863B6E79DF800709DF8026064F3D3
:10592800060763F3C4068DF800708DF80260D3E7AC
:105938004A780B78012A00EB830006D0416D08688D
:1059480040F400120A600020704782691368C3F3AC
:10595800076C0CF08000C1B209B143F0804343F4F6
:10596800001313600020704791F801C00B78C978C4
:10597800BCF1010F00EB830C0CBFDCF81820DCF83D
:105988005420881E1368C1B26FF35553012998BF7C
:1059980043F0805313600020704700BF03699A6981
:1059A800D96901EA0200000C704700BF00EB810CC6
:1059B8000269DCF854108B6850691840704700BFC2
:1059C80002699169D36901EA030080B2704700BF98
:1059D80082B0012100220023009261F3C40318223F
:1059E800C0218DF803108DF802308DF80020436D2A
:1059F80000991961C278012A01BF00F5B9605861A0
:105A08001A684FF0802208BF1A6002B0704700BFC2
:105A1800D0F8143110B50446D3B103699A68D20797
:105A280016D5817A41B1D0F80C21D0F80C016FF36A
:105A380041026FF300020260596841F001025A60A6
:105A48000520FBF7FBF82369586820F0010159602D
:105A580010BD00BF837A6BB101698B68D90741BF5C
:105A6800D0F80C31D0F80C216FF341036FF3000329
:105A780048BF1360704700BF10B543780122044641
:105A880080F8122163B100F114020023FF2152F8BB
:105A9800040F8160D06B8160607801339842F6D83A
:105AA800236900224FF0FF311A6120465A61DA61FA
:105AB8009961FFF76BFC20461021BDE81040FFF705
:105AC8003BBC00BF4A780B78012A00EB830014D056
