:020000040800F2
:100000000000022061A40008F9010008FD010008B9
:1000100001020008050200080902000800000000B3
:100020000000000000000000000000000D020008B9
:100030001102000800000000150200081902000863
:10004000B1A40008B1A40008B1A40008B1A400083C
:10005000B1A40008B1A40008250200081D02000890
:10006000B1A40008B1A40008B1A40008B1A400081C
:10007000B1A40008B1A40008B1A40008B1A400080C
:10008000B1A40008B1A40008B1A40008B1A40008FC
:10009000B1A40008B1A40008B1A40008B1A40008EC
:1000A000B1A40008B1A40008B1A40008B1A40008DC
:1000B0002D020008B1A40008B1A40008B1A40008F2
:1000C000B1A40008B1A40008B1A40008B1A40008BC
:1000D000B1A40008B1A40008B1A40008B1A40008AC
:1000E000B1A40008B1A40008B1A40008B1A400089C
:1000F000B1A40008B1A40008B1A40008B1A400088C
:10010000B1A40008B1A40008B1A40008B1A400087B
:10011000B1A40008B1A40008B1A40008B1A400086B
:10012000B1A40008B1A40008B1A40008B1A400085B
:10013000B1A40008B1A40008B1A40008B1A400084B
:10014000B1A40008B1A40008B1A40008310200085D
:10015000B1A40008B1A40008B1A40008B1A400082B
:10016000B1A40008B1A40008B1A40008B1A400081B
:10017000B1A40008B1A40008B1A40008B1A400080B
:08018000B1A40008B1A40008BD
:1001880010B52E2104460AF029F8D0F1010338BF32
:100198000023A04214BF1C4643F001040CB90130EF
:1001A80010BD4AF66C30C0F6000010BD704700BFA5
:1001B80040F2C003C2F200031A6812B11968481E5F
:1001C800186040F2EC43C2F200031868421C1A603F
:1001D800704700BF82B040F2C0020190019BC2F29A
:1001E8000002136010680028FCD102B0704700BFFD
:1001F800704700BFFEE700BFFEE700BFFEE700BF95
:10020800FEE700BF704700BF704700BF704700BFE0
:10021800FFF7CEBF022002F0EFB800BF012002F0C6
:10022800EBB800BF00F08EBA40F2F040C2F2000016
:1002380009F022BF4FF46053C4F202030022186889
:1002480040F0010119609A60186843F2100120F02B
:10025800847C2CF48030C2F2004118605960186820
:1002680082B020F480211960DA6000920192186847
:1002780040F480321A601A4603E00098B0F5A06F87
:1002880009D0116801F4003301930098411C0091D2
:10029800019B002BF1D04FF4605CC4F2020CDCF837
:1002A800003013F4003208BF019201D001210191FE
:1002B8000198012808D04FF46D43CEF200034FF0A7
:1002C8000060986002B070474FF46053C4F20203B4
:1002D8004FF4E04C186CC4F2000C40F080511964E3
:1002E800DCF8002042F48040CCF80000996899605E
:1002F8009A6842F400409860996845F2084041F4D1
:10030800A052C0F240709A605860196841F080723B
:100318001A6019460A684FF460539201C4F2020346
:10032800F8D54FF4705CC4F2020C40F20560CCF8CA
:100338000000996821F003029A60986840F0020171
:100348009960996801F00C02082AFAD1B3E700BF56
:100358004FF46053C4F202039A6802F00C02042AB4
:1003680004BF47F64001C0F27D1106D0082A1CBF21
:100378004FF41051C0F2F40110D04FF46050C4F2A1
:10038800020040F204038268C2F20003C2F3031CB5
:1003980013F80C0021FA00F11961704758685A687F
:1003A800596810F4800F4FF4605C14BF47F640039F
:1003B8004FF41053C4F2020C14BFC0F27D13C0F204
:1003C800F40302F03F02C1F38810B3FBF2F1DCF84A
:1003D8000430C3F3014201FB00F1501C4300B1FBA0
:1003E800F3F1CAE7002070470020704701207047EA
:1003F800002070474FF0FF30704700BF0020704763
:1004080040F29803C2F20003186838B141186A46EE
:10041800914294BF19604FF0FF30704741F2687005
:10042800C2F200001860F1E770B5161E0C4613DD25
:1004380000254FF48840C4F20000615D06F056F8CC
:100448004FF48840C4F20000402106F01DF900284E
:10045800F6D00135B542ECD1304670BD704700BFCB
:10046800704700BF704700BF704700BF704700BFAC
:10047800704700BF704700BF704700BF704700BF9C
:10048800704700BF704700BF01207047704700BF2A
:10049800704700BF40F6906110B50020C2F200011D
:1004A80004F0B0F9044680B940F29003C2F20003A8
:1004B8004FF4406019684A1CC4F202004FF480519E
:1004C8001A6000F067FD204610BD4FF0FF3010BDE8
:1004D8004FF44060C4F202004FF4804100F05ABD6E
:1004E80008B54FF4FA7000F005F9BDE80840FFF7C9
:1004F800D1BF00BF10B54FF44064C4F202044FF4FA
:100508008041204600F048FD20464FF4805100F01D
:1005180043FD20464FF4005100F03EFD20464FF4C5
:10052800004100F039FD40F29003C2F200030022BE
:100538001A6010BD30B540F2A004C2F200040346B0
:1005480085B00D464FF080400021236000F004FF85
:10055800012100224FF0804001F096FB022D2FD0A0
:10056800012D04BF42F6DF630293002205234FF0FA
:10057800804001A9ADF80430ADF80C20ADF8062094
:1005880000F01CFE4FF08040012101F09FFB4FF06E
:100598008040012100F0B6FE01214FF080400A465C
:1005A80001F072FB4FF08040012100F0D5FE216878
:1005B8000029FCD14FF0804000F0CEFE05B030BDE0
:1005C8000B200290D1E700BF704700BFF0B50120B3
:1005D800002585B0C4F20205014600F04BFA00265A
:1005E8004FF4D053032701A92846022401938DF81C
:1005F80008408DF809708DF80A608DF80B6000F0DE
:10060800E5FB284609210A2200F0D6FC28460B21E2
:100618000A2200F0D1FC28460A220C2100F0CCFC6A
:10062800012401A928464FF4806201928DF80A40FE
:100638008DF80B408DF8097000F0C8FB0A210A46B6
:10064800284600F0B9FC21464FF4804000F04AFAF1
:100658008020214600F01CFA31464FF0006003F07C
:1006680003F94FF4A06003F0B3F803A81C238DF836
:100678000C308DF80D608DF80E408DF80F4003F0AA
:10068800B1F82046214600F01FFA05B0F0BD00BFC2
:1006980010B54FF4C06082B003F09AF8012401A8A5
:1006A80043228DF804208DF805408DF806408DF81A
:1006B800074003F097F81721022301A88DF80410CA
:1006C8008DF805408DF806308DF8074003F08AF85C
:1006D80002B010BD4FF40060C4F2020011B1012154
:1006E80000F05ABC012100F055BC00BF0221FFF701
:1006F80021BF00BF0121FFF71DBF00BF30B54FF478
:10070800006583B004200121C4F2020500F0B2F9AB
:10071800012400230222284669468DF805208DF819
:1007280006308DF8073000948DF8044000F04EFB39
:100738002846214600F02EFCC820FFF7DBFF03B057
:1007480030BD00BF08B54FF08040012101F0B2FA7A
:1007580000B908BD01214FF0804001F0B7FA40F21E
:10076800A003C2F20003196819B11868421E1A6082
:1007780008BD4FF08040BDE8084000F0EDBD00BF67
:100788004FF46053C4F202030022186840F00101DC
:1007980019609A60186843F2100120F0847C2CF4E8
:1007A8008030C2F2004118605960186820F4802136
:1007B8001960DA60704700BF43F60203C4F202030F
:1007C80000221A701870704782B04FF460510023ED
:1007D8000193C4F202010A680198431C019301982D
:1007E800B0F5A06F01D09303F5D54FF46052C4F271
:1007F80002021168C1F3404002B070474FF46053E1
:10080800C4F202031A6822F0F80141EAC0021A6031
:10081800704700BF0023C4F247231860704700BF29
:1008280043F67003C4F20203002201281A701A70FA
:1008380004D0042801D1052018707047187070473B
:100848004FF46863C4F2472318607047084340EACE
:10085800821C009A5B084FF460504CEA0261013B2D
:10086800C4F2020041EA0342426070476023C4F2C6
:1008780047231860704700BF4FF460538001C4F2EB
:10088800020340EA0171C3F8841070476823C4F278
:1008980047231860704700BF4C23C4F247231860F1
:1008A800704700BF4FF46053C4F202039A6822F005
:1008B800EC6C40EA0C0040EA01029A60704700BF05
:1008C8004FF46053C4F202039A6822F0784C40EA6D
:1008D8000C0040EA01029A60704700BF4FF4605371
:1008E800C4F202039A6822F0030140EA01029A6006
:1008F800704700BF4FF46053C4F20203986800F0D9
:100908000C0070474FF46053C4F202039A6822F057
:10091800F00140EA01029A60704700BF4FF460534B
:10092800C4F202039A6822F4E05140EA01029A6094
:10093800704700BF4FF46053C4F202039A6822F470
:10094800604141EAC0029A60704700BF4FF46053AB
:10095800C4F2020310B49A6802F00C02042A02BF1F
:1009680047F64001C0F27D11016007D0082A1EBF7A
:100978004FF41051C0F2F401016021D04FF46053DC
:10098800C4F2020340F2600C9A68C2F2000CC2F38F
:1009980003141CF8042021FA02F141609C68C4F396
:1009A80082221CF8024021FA04F484609A68C2F397
:1009B80042331CF8032021FA02F3C36010BC7047CD
:1009C8005C685A68596814F4800F4FF4605C14BF6F
:1009D80047F640034FF41053C4F2020C14BFC0F2A0
:1009E8007D13C0F2F40302F03F02C1F38814B3FB95
:1009F800F2F1DCF80430C3F3014201FB04F1541CAA
:100A08006300B1FBF3F10160B8E700BF00F4407385
:100A1800B3F5407F0FD14FF4605CC4F2020C20F0B4
:100A28007043DCF8082023F4407122F4F81341EAFB
:100A38000302CCF808204FF4605CC4F2020C0305F2
:100A4800DCF87020190D41EA0200CCF870007047FC
:100A580040F63C63C4F24723186070474FF4646360
:100A6800C4F24723186070474FF4AE73C4F24723AB
:100A7800186070474FF46053C4F202031A6B19B937
:100A880022EA00011963704710431863704700BFDA
:100A98004FF46053C4F202035A6B19B922EA0001F9
:100AA8005963704710435863704700BF4FF4605351
:100AB800C4F202039A6B19B922EA000199637047DC
:100AC80010439863704700BF4FF46053C4F20203A9
:100AD8001A6C19B922EA00011964704710431864A6
:100AE800704700BF4FF46053C4F202035A6C19B93F
:100AF80022EA00015964704710435864704700BFE8
:100B08004FF46053C4F202031A6919B922EA0001CA
:100B18001961704710431861704700BF4FF4605364
:100B2800C4F202035A6919B922EA000159617047EF
:100B380010435861704700BF4FF46053C4F202037A
:100B48009A6919B922EA00019961704710439861BE
:100B5800704700BF4FF46053C4F202031A6A19B910
:100B680022EA00011962704710431862704700BFFB
:100B78004FF46053C4F202035A6A19B922EA000119
:100B88005962704710435862704700BF4FF4605372
:100B9800C4F202031A6D19B922EA000119657047F7
:100BA80010431865704700BF4FF46053C4F2020346
:100BB8005A6D19B922EA0001596570471043586502
:100BC800704700BF4FF46053C4F202039A6D19B91D
:100BD80022EA00019965704710439865704700BF85
:100BE8004FF46053C4F202031A6E19B922EA0001E5
:100BF8001966704710431866704700BF4FF460537A
:100C0800C4F202035A6E19B922EA00015966704704
:100C180010435866704700BF43F60D03C4F2020341
:100C28001A7819B922EA0001197070471043187030
:100C3800704700BF4309012B0ED0022B4FF46053BD
:100C4800C4F2020300F01F010CBF1B6F5B6F23FA95
:100C580001F000F0010070474FF46053C4F2020342
:100C680000F01F011B6823FA01F000F00100704733
:100C78004FF46053C4F20203586F40F080725A6711
:100C8800704700BF4FF46051C4F20201CB681842AC
:100C98000CBF00200120704743F60E03C4F2020384
:100CA8001870704708B50023C4F2020398423CD07C
:100CB8004FF48061C4F20201884240D04FF40062D0
:100CC800C4F20202904244D04FF4406CC4F2020CC9
:100CD800604548D04FF48053C4F2020398424CD088
:100CE8004FF4A051C4F20201884250D04FF4C052D0
:100CF800C4F20202904254D04FF4E05CC4F2020CF9
:100D0800604558D04FF40053C4F20203984200D013
:100D180008BD01214FF48070FFF7F2FE4FF4807098
:100D28000021BDE80840FFF7EBBE01200146FFF7B0
:100D3800E7FE01200021BDE80840FFF7E1BE0220E0
:100D48000121FFF7DDFE02200021BDE80840FFF782
:100D5800D7BE04200121FFF7D3FE04200021BDE8FF
:100D68000840FFF7CDBE08200121FFF7C9FE082083
:100D78000021BDE80840FFF7C3BE10200121FFF79E
:100D8800BFFE10200021BDE80840FFF7B9BE2020B3
:100D98000121FFF7B5FE20200021BDE80840FFF73C
:100DA800AFBE40200121FFF7ABFE40200021BDE887
:100DB8000840FFF7A5BE80200121FFF7A1FE802093
:100DC8000021BDE80840FFF79BBE00BF00232DE9C6
:100DD800F0070A681C4601264FF0030C0BE00134AB
:100DE80006FA04F505EA02070233AF4235D00134AA
:100DF8000233102C59D006FA04F505EA0207AF426F
:100E0800EDD1D0F8009091F804800CFA03F5ED4389
:100E180005EA090AC0F800A0D0F8009008FA03FA19
:100E280008F1FF385FFA88F84AEA0909B8F1010FB2
:100E3800C0F800903CD9C76891F807803D40C5606C
:100E4800C76808FA03F53D430134C56006FA04F59E
:100E580005EA02070233AF42C9D1D0F8009091F8F1
:100E680004800CFA03F5ED4305EA090AC0F800A06E
:100E7800D0F8009008FA03FA08F1FF385FFA88F80A
:100E88004AEA0909B8F1010FC0F8009030D9C768DB
:100E980091F807802F40C760C76808FA03F5013446
:100EA8003D430233102CC560A5D1BDE8F00770475B
:100EB800D0F808A091F8059091F8068005EA0A0A8A
:100EC800C0F808A0D0F808A009FA03F949EA0A0905
:100ED800C0F80890D0F8049029EA070747604768E7
:100EE80008FA04F81FFA88F848EA07074760A2E7F3
:100EF800D0F808A091F8059091F8068005EA0A0A4A
:100F0800C0F808A0D0F808A009FA03F949EA0A09C4
:100F1800C0F80890D0F8049029EA070747604768A6
:100F280008FA04F81FFA88F848EA07074760AEE7A6
:100F380000234FF6FF720260037143718371C3711E
:100F4800704700BF82B04FF480320192019B41EAA2
:100F580003020192019BC361C161019AC261C16927
:100F68000191C369019302B0704700BF0369194238
:100F78000CBF002001207047006980B2704700BF95
:100F8800436919420CBF002001207047406980B2B4
:100F9800704700BF01837047418370470AB9418396
:100FA80070470183704700BF41617047426981EA19
:100FB80002034361704700BFCB08083301F0070103
:100FC80030B4890050F823500F2404FA01FC25EAB4
:100FD8000C0440F8234050F8234002FA01F10C4376
:100FE80040F8234030BC704708B50023C4F2010321
:100FF80098425BD0B0F1804F62D04FF48061C4F268
:101008000001884266D04FF40062C4F200029042A8
:101018006AD04FF4406CC4F2000C60456ED04FF4B7
:101028008053C4F20003984272D04FF4A051C4F226
:101038000001884276D04FF48062C4F201029042E7
:101048007AD04FF4804CC4F2010C60457ED04FF446
:101058008843C4F20103984200F084804FF4904121
:10106800C4F20101884200F089804FF4C052C4F2F2
:101078000002904200F08E804FF4E05CC4F2000C55
:10108800604500F091804FF40053C4F20003984289
:1010980000D008BD01214FF48070FFF75BFD4FF4CD
:1010A80080700021BDE80840FFF754BD01200146CB
:1010B800FFF75EFD01200021BDE80840FFF758BD9D
:1010C80001200146FFF746FD01200021BDE8084048
:1010D800FFF740BD02200121FFF73CFD022000215F
:1010E800BDE80840FFF736BD04200121FFF732FDB7
:1010F80004200021BDE80840FFF72CBD082001218D
:10110800FFF728FD08200021BDE80840FFF722BDB1
:1011180010200121FFF71EFD10200021BDE8084026
:10112800FFF718BD20200121FFF714FD2020002122
:10113800BDE80840FFF70EBD02200121FFF718FDAA
:1011480002200021BDE80840FFF712BD01214FF43D
:101158008030FFF70DFD4FF480300021BDE80840D6
:10116800FFF706BD01214FF40030FFF701FD4FF4F2
:1011780000300021BDE80840FFF7FABC01214FF418
:101188008020FFF7F5FC4FF480200021BDE80840DF
:10119800FFF7EEBC40200121FFF7DCFC40200021D6
:1011A800BDE80840FFF7D6BC80200121FFF7D2FC3C
:1011B80080200021BDE80840FFF7CCBC0023C4F222
:1011C800010330B4C51A6B424FF48062C4F20102C5
:1011D80043EB0503904208BF43F00103048883B939
:1011E800A0F1804CDCF100054FF48062C4F20002EB
:1011F80045EB0C0C904214BF62464CF00102002AE9
:101208002CD04FF68F72B1F802C0144044EA0C0497
:101218004FF48055C4F20005421B4FF4A05CC4F2A1
:10122800000C18BF012260450CBF002502F0010523
:1012380035B14FF6FF42B1F808C0144044EA0C0437
:101248004D68B1F800C00480C562A0F828C00BB191
:10125800897A01860123838230BC70474FF4006588
:10126800C4F20005C5EB000CDCF100054FF4406248
:10127800C4F2000245EB0C05904214BF2A4645F023
:101288000102002AC4D0BCE700234FF0FF314160BF
:101298000380038143808372704700BF0185828287
:1012A800704700BFB0F800C02CF0700213041A0C8D
:1012B80041EA02030380704741627047C162704788
:1012C800406A7047008D80B2704700BF038829B913
:1012D80023F002010B041A0C0280704799B241F006
:1012E80002030380704700BF038829B923F0040173
:1012F8000B041A0C0280704799B241F00403038072
:10130800704700BF038829B923F080010B041A0C29
:101318000280704799B241F080030380704700BF94
:10132800028822F008031A04130C0380B0F800C0E6
:101338001FFA8CF241EA020303807047028822F404
:1013480040731A04130C0380B0F800C01FFA8CF223
:1013580041EA020303807047038829B923F0010199
:101368000B041A0C0280704799B241F00103038004
:10137800704700BF2DE9F001058CB1F802808F8914
:10138800B1F800C025F001021604340C0484058C61
:101398008488038B0026C4F2010623F0730225F02B
:1013A800020312041B044FF48065B04214BF0026E8
:1013B800012648EA0707C4F20105120C1B0CBFB24C
:1013C800A84214BF354646F0010542EA0C023B43E9
:1013D800C5B14FF6F775B1F80EC0B1F812800F8A93
:1013E8008E881D4045EA0C0C4FF6FB734FF6FF45FF
:1013F80048EA07070CEA030325401FFA87FC334332
:101408004CEA050489688480028341630384BDE84B
:10141800F00170472DE9F001068CB1F80080B1F8B1
:101428000CC04F8826F010031D042C0C0484028C79
:101438008488068B22F0200526F4E6430026C4F2B1
:1014480001061A042B04120C1B0C4FF48065B042E1
:10145800C4F2010514BF0026012643EA0C13A84272
:1014680014BF354646F0010542EA082243EA07134D
:10147800BDB1CD89B1F810C0B1F804804F8A4FF6DC
:101488007F761E4046EA05164FF2FF354FF6BF73CA
:10149800254045EA8C0C06EA030444EA08134CEAA2
:1014A800870489688480028381630384BDE8F0012E
:1014B800704700BF038CB1F800C02DE9F00123F498
:1014C80080752A04140CB1F80C804F880484068CAB
:1014D8008488838B26F400750026C4F201062A044A
:1014E80023F073031B04120C4FF48065B04214BF41
:1014F80000260126C4F201051B0C42EA0822A84274
:1015080014BF354646F0010543EA0C0342EA0722B8
:10151800BDB1CD89B1F810C0B1F804804F8A4FF23F
:10152800FF76164046EA05264CF6FF754FF6FF3261
:10153800254045EA0C1C06EA020444EA08224CEA63
:101548000714896884808383C1630284BDE8F0013D
:10155800704700BF2DE9F001068CB1F80080B1F8A2
:101568000CC04F8826F480531D042C0C0484028C74
:101578008488868B22F4005526F4E6430026C4F2BC
:1015880001061A042B04120C1B0C4FF48065B042A0
:10159800C4F2010514BF0026012643EA0C33A84211
:1015A80014BF354646F0010542EA082243EA0733EC
:1015B80035B14BF6FF7C0E8A04EA0C0545EA861421
:1015C80089688480828301640384BDE8F0017047E0
:1015D800002303804380838083608381C3810382E7
:1015E8004382704730B4048C0123A5B203FA01F496
:1015F800D1F1010338BF002325EA0404082908BFF4
:1016080043F0010300F11805048483B90439C1F3D8
:101618004E0148F6FF7C4B5903EA0C004851120270
:101628004B5990B243EA00024A5130BC704749080E
:101638004FF68F7C485900EA0C034B514859024336
:101648004A51F2E74163704781637047C16370474D
:1016580001647047B0F818C02CF0700213041A0C1B
:1016680041EA020303837047B0F818C02CF4E04243
:1016780013041A0C42EA012303837047B0F81CC014
:101688002CF0700213041A0C41EA0203838370479A
:10169800B0F81CC02CF4E04213041A0C42EA0123EF
:1016A80083837047B0F818C02CF0080213041A0C92
:1016B80041EA020303837047B0F818C02CF40062B3
:1016C80013041A0C42EA012303837047B0F81CC0C4
:1016D8002CF0080213041A0C41EA020383837047B2
:1016E800B0F81CC02CF4006213041A0C42EA01235F
:1016F80083837047B0F818C02CF0040213041A0C46
:1017080041EA020303837047B0F818C02CF48062E2
:1017180013041A0C42EA012303837047B0F81CC073
:101728002CF0040213041A0C41EA02038383704765
:10173800B0F81CC02CF4806213041A0C42EA01238E
:1017480083837047B0F818C02CF0800213041A0C79
:1017580041EA020303837047028B53045A0C42EA9E
:1017680001230383704700BFB0F81CC02CF080022F
:1017780013041A0C41EA020383837047828B5304D3
:101788005A0C42EA01238383704700BFB0F820C097
:101798002CF0020213041A0C41EA02030384704776
:1017A800B0F820C02CF0080213041A0C41EA020316
:1017B80003847047B0F820C02CF0200213041A0CE0
:1017C80042EA011303847047B0F820C02CF080026D
:1017D80013041A0C42EA011303847047B0F820C0BE
:1017E8002CF4007213041A0C42EA01230384704794
:1017F800B0F820C02CF4006213041A0C42EA01234A
:1018080003847047B0F820C02CF4005213041A0C5B
:1018180042EA01330384704710B4048C012303FAAD
:1018280001FCA4B224EA0C030384B0F820C002FA35
:1018380001F141EA0C03038410BC704710B4048C16
:10184800042303FA01FCA4B224EA0C030384B0F8CD
:1018580020C002FA01F141EA0C03038410BC70476E
:101868000B88F0B4002B33D0042B5FD0082B038CEB
:1018780000F08B8023F480524F888E880D89CC88A5
:1018880011040B0C0384B0F81CC0028C22F4005124
:101898002CF440734A04520C19050B0D42EA073127
:1018A80043EA06238AB243EA053C42F48051A0F891
:1018B8001CC00184828B22F440610B041A0C8283C1
:1018C800818B8BB243EA042CA0F81CC0F0BC704793
:1018D800B0F820C04E888D880F89CC882CF0010282
:1018E80011040B0C0384028BB0F820C022F0F30122
:1018F8000B041A0C2CF00A0142EA07120B041FFA17
:1019080082FC46F001011B0C4CEA05020B430283E2
:101918000384B0F818C02CF00C0211040B0C0383DC
:10192800028B91B241EA04030383CFE7028C4E880D
:101938008D880F89CC8822F010031A04110C0184B9
:10194800038BB0F820C023F4407211052CF0A003DB
:101958000A0D19040B0C43EA061C42EA073291B23D
:101968001FFA8CF242F0100341EA05210183038437
:10197800B0F818C02CF4406211040B0C0383028BDE
:1019880091B241EA04230383A0E723F480724E88CE
:101998008D880F89CC8811040B0C0384828BB0F8D6
:1019A80020C022F0F3012CF420630A041904120C5D
:1019B8000B0C42EA071C43EA06211FFA8CF28BB291
:1019C80042EA050C43F48071A0F81CC00184828BA4
:1019D80022F00C0319040A0C8283838B1FFA83FC00
:1019E8004CEA0401818371E70023012203804380CC
:1019F8008280C380038170472DE9F0018A88B1F89D
:101A080002800B88B8F1000F0CBF02250025012ABF
:101A180014BF01260226002B50D0048CB1F808C050
:101A2800CF8824F010031C04210C0184038B018C43
:101A380023F44074230521F0A0011C0D0B04190C9C
:101A480044EA0C3441EA081399B2A4B241F01003F5
:101A580044EA022202830384018B21F440631A04BE
:101A6800110C0183038B9AB242EA07210183038C8C
:101A780023F0010211040B0C0384028B038C22F067
:101A8800F3010A0423F00A01120C0B041B0C42EAAE
:101A98000C118AB243F0010C16434CEA0505068383
:101AA8000584018B21F00C031A04110C0183038BAC
:101AB8009AB217430783BDE8F0017047B0F820C019
:101AC8000F89CC882CF001010B04190C0184038BBD
:101AD800B0F820C023F0F3010B04190C2CF00A0312
:101AE8001B0441EA071C1FFA8CF11B0C48F0010883
:101AF8000A4343EA080C0283A0F820C0018B21F0B6
:101B08000C031A04110C0183038B1FFA83FC4CEAA3
:101B180004020283018C21F010031A04110C0184C1
:101B2800038BB0F820C023F4407211052CF0A003F9
:101B38000A0D190442EA07320B0C43F0100391B264
:101B480041EA062643EA051506830584B0F818C05D
:101B58002CF4406211040B0C0383028B91B241EA0E
:101B680004240483A7E700BF406B7047806B70476D
:101B7800C06B7047006C7047028B22F00C031A048C
:101B8800130C0383B0F818C01FFA8CF241EA020361
:101B980003837047028B22F440631A04130C0383F7
:101BA800B0F818C01FFA8CF242EA01230383704789
:101BB800828B22F00C031A04130C8383B0F81CC028
:101BC8001FFA8CF241EA020383837047828B22F466
:101BD80040631A04130C8383B0F81CC01FFA8CF2FC
:101BE80042EA0123838370470B88B1F802C08A89CF
:101BF800F0B48F88CE880D894C894CEA030C4CEAE6
:101C0800070141EA060343EA050C4CEA040141EAEC
:101C18000203A0F84430F0BC704700BF00230380E3
:101C280043808380C380038143818381704700BFE1
:101C3800B0F8443021B95B045A0CA0F8442070472E
:101C48006FEA43416FEA5143A0F84430704700BF40
:101C5800838829B923F004010B041A0C8280704789
:101C680099B241F004038380704700BF838829B983
:101C780023F001010B041A0C8280704799B241F0DD
:101C880001038380704700BF83899BB21AB923EA96
:101C980001028281704719438181704781827047B0
:101CA800038A19420CBF002001207047C9430182F2
:101CB800704700BF038A828911420CBF00200120AF
:101CC80019420CBF002000F001007047C94301828F
:101CD800704700BF0A43A0F84820704783899BB229
:101CE8001AB923EA0102828170471943818170473A
:101CF800838829B923F008010B041A0C82807047E5
:101D080099B241F008038380704700BFB0F808C05B
:101D18002CF0070211040B0C03817047028922F092
:101D280070031A04130C41EA030CA0F808C00289D6
:101D380091B241F007030381704700BF602930B4B6
:101D4800048C29D024F0010425042C0C0484058B70
:101D5800B0F820C025F0F30425042CF00A0424046C
:101D68002D0C240C45F0010544F0010445EA031349
:101D7800224303830284B0F808C02CF070021304D5
:101D88001A0C41EA020CA0F808C003899AB242F082
:101D98000701018130BC704724F010052C04250C84
:101DA8000584048BB0F820C024F440752CF0A004FE
:101DB8002D0524042D0D240C45F4807544F01004E1
:101DC80045EA033344EA021203830284D3E700BFDF
:101DD80010B404895FFA84FC41EA0C0142EA010468
:101DE80044EA03240481018921F077031A04110CC1
:101DF80041F07703038110BC704700BF10B4048919
:101E08005FFA84FC41EA0C0142EA010444EA032433
:101E18000481028991B241F48043038110BC704768
:101E2800B0F808C02CF0700213041A0C41EA02033F
:101E380003817047828822F070031A04130C838090
:101E4800B0F804C01FFA8CF241EA0203838070479D
:101E5800028922F007031A04130C0381B0F808C0A2
:101E68001FFA8CF241EA020303817047028922F0CB
:101E780080031A04130C0381B0F808C01FFA8CF20F
:101E880041EA02030381704710B404895FFA84FCB5
:101E980041EA0C0142EA010444EA0324048110BC2B
:101EA800704700BFB0F808C070B4058B068C25F4E5
:101EB800407424F0030426F022052E0424042CF098
:101EC8000705360C2D04240C16432D0C44F480749D
:101ED80046EA0316294344F0010401810483068479
:101EE80070BC7047838829B923F080010B041A0C51
:101EF8008280704799B241F080038380704700BFA9
:101F0800A0F85010704700BF08B54FF44053C4F212
:101F18000103984218D04FF46051C4F2000188427E
:101F28001ED04FF47052C4F20002904200D008BD97
:101F380001214FF40040FEF70DFE4FF40040002150
:101F4800BDE80840FEF706BE01214FF48050FEF7B9
:101F58000FFE4FF480500021BDE80840FEF708BE90
:101F680001214FF48040FEF7F5FD4FF48040002139
:101F7800BDE80840FEF7EEBD2DE9F0070B88B1F883
:101F880002A0B1F80490B1F80680B1F808C04F89F2
:101F98008E89CC890A8A05884AEA030343EA09013B
:101FA80041EA080343EA0C0141EA070343EA060C45
:101FB80005F441514CEA040341EA030CA0F800C0BF
:101FC800818B21F4006319040B0C83830282BDE822
:101FD800F0077047B0F81CC08A682DE9F0032CF4AC
:101FE8007A6727F01F0635042C0C02238483022A03
:101FF8000384868B64D04FF46057C4F202078C8840
:10200800BB68002C0CBF4FF0010C4FF0020C1D02F6
:1020180048BFBD684FF46053C4F2020344BF25F4BF
:102028000005BD60D3F88480D3F88470D3F8049099
:10203800CB8847F6400509F03F09C0F27D15B5FB8E
:10204800F9F5C8F3881808FB05F5C7F30277B3F567
:10205800007FB5FBF7F536D04FEA4C17B5FBF7F51F
:1020680005EB85056F00B7FBF2F56F1D4CF6CD4209
:102078001FFA87FCCCF6CC42A2FB0C75EA0855087F
:10208800AF1E1FFA87FC02F00102BCF1FD0F94BFDE
:1020980045EA02220222B1F800C04F888D8946EA3B
:1020A8000C0141F4006C4CEA070141EA050C1FFAE7
:1020B8008CF113430C4303848483BDE8F003704719
:1020C8008C88CB88E7E72D0ACAE700BF00210723E1
:1020D800018041808180C180018141818181C181EC
:1020E8000382704700230222038043808380C380D9
:1020F80082608381704700BF038829B923F04001BB
:102108000B041A0C0280704799B241F04003038017
:10211800704700BF838B29B923F480610B041A0C24
:102128008283704799B241F480638383704700BF0C
:10213800028822F400631A04130C0380B0F800C06C
:102148001FFA8CF241EA020303807047B1F5804F11
:10215800038805D023F480410B041A0C02807047D1
:1021680099B241F480430380704700BF4FF6FF6384
:102178009942038804D09AB242F480710180704772
:1021880023F4807211040B0C03807047838829B9EB
:1021980023F004010B041A0C8280704799B241F0B5
:1021A80004038380704700BF838829B923F0100196
:1021B8000B041A0C8280704799B241F01003838097
:1021C800704700BFB0F81CC00A8870B44E888D886C
:1021D8008C892CF47A6121F01F0319040B0C02215D
:1021E80083830184A2F50073B0F81CC0594241EB07
:1021F80003014CEA060343F4006C4CEA050343EA86
:10220800040C002A08BF41F001011FFA8CF343EACD
:102218000122828370BC7047808980B2704700BFFA
:1022280081817047038829B923F400510B041A0CE3
:102238000280704799B241F400530380704700BF91
:10224800028891B241F4805303807047012915BF79
:10225800008B808A80B280B2704700BF008A80B24B
:10226800704700BF83889BB21AB923EA01028280B3
:1022780070471943818070470123090903FA01F166
:10228800838889B29BB222B923EA010CA0F804C062
:10229800704741EA03028280704700BF03891942F0
:1022A8000CBF002001207047C9430181704700BF5F
:1022B80010B484880089012201F00F0C80B202FA60
:1022C8000CF31840A4B206D0090902FA01F214422C
:1022D8000CBF0020012010BC704700BF01F00F0C9C
:1022E800012303FA0CF2D143018170474FF4705374
:1022F800C4F201034FF6FF710022C0F27F011A6099
:102308005A609A60DA605961704700BF837970B487
:1023180043B34FF47053C4F2010301681E68027995
:102328004579CC4326401E605E6802F1804C0CF56E
:102338009E3234405C6014682143116002689868DA
:10234800D14308409860D868102D01EA0001D9608F
:1023580016D005F1804505F59E35286840EA020348
:102368002B600BE00279016802F1804000F59E3C89
:10237800DCF8003023EA0102CCF8002070BC70477A
:10238800996841EA02009860D96841EA0200D86079
:10239800F4E700BF00230C220360037142718371CC
:1023A800704700BF4FF47053C4F20103196940EA43
:1023B80001021A61704700BF4FF47051C4F2010165
:1023C8004B6918420CBF0020012070474FF470532E
:1023D800C4F20103586170474FF47051C4F201010F
:1023E8000A684B69034004D010420CBF002001204A
:1023F80070471846704700BF4FF47053C4F201038A
:102408005861704708B501214FF48070FEF7B0FBA2
:102418004FF480700021BDE80840FEF7A9BB00BF5B
:10242800D0F804C00B684A792CF0407CF0B42CF446
:10243800807C0D79CF680C698E684CEA030343EA07
:102448000525456085684FF2FD7CCCF2FF0C3C43C6
:1024580005EA0C03344344EA030C4CEA4203836064
:102468000A7DC16A531E21F47002D9B242EA0153AF
:10247800C362F0BC704700BF0021012301600171F5
:1024880041718160C16001610375704770B44FF498
:102498000C5290E84200C4F2010285685468C06892
:1024A80046EA010C43F2E003CFF6FC734CEA05015F
:1024B800014304EA030C41EA0C03536070BC704703
:1024C8000023036043608360C3607047836819B961
:1024D80023F001018160704743F001038360704776
:1024E800436823F4400C2CF4007241EA0203436071
:1024F800704700BF41628262704700BF436823F0A3
:102508001F0241EA02034360704700BF4FF40C53B7
:10251800C4F201035A6818B922F4000058607047E1
:1025280042F400025A6070474FF40C53C4F201039E
:102538005A6818B922F480005860704742F4800243
:102548005A607047092970B421D901EB41041E3C37
:10255800C668072505FA04F526EA050503FA04F412
:1025680045EA0403062AC36020D90C2A02EB82023A
:102578002BD9C46A413A1F2303FA02F324EA030C55
:1025880001FA02F24CEA0201C16270BC70470669A6
:1025980001EB4104072505FA04F526EA050503FAC7
:1025A80004FC45EA0C03062A0361DED8013A446BB1
:1025B80002EB820C1F2303FA0CF224EA020301FA4D
:1025C8000CF143EA01024263DFE7046B233A1F235D
:1025D80003FA02F324EA030C01FA02F24CEA0201BC
:1025E8000163D2E7816841F080438360704700BF90
:1025F8008068C0F380507047836819B923F48061FC
:102608008160704743F4806383607047836819B9B9
:1026180023F002018160704743F002038360704732
:102628004A1E416821F4604343EA423141607047E1
:10263800436819B923F400614160704743F40063AB
:1026480043607047C06C80B2704700BF42F20833E5
:10265800C4F2010318687047836819B923F48071BC
:102668008160704743F4807383607047836819B949
:1026780023F400718160704743F4007383607047EE
:102688004FF40C53C4F201035A6818B922F40050ED
:102698005860704742F400525A607047092970B474
:1026A80021D8066901EB4104072505FA04F526EA55
:1026B800050503FA04FC45EA0C030361836BC3F3C5
:1026C800015CCCEB0202941CE2B202EB820C1F24E8
:1026D80004FA0CF423EA040301FA0CF243EA0201B7
:1026E800816370BC704701EB4104C6681E3C072536
:1026F80005FA04F526EA050503FA04F445EA040395
:10270800C360DBE74A1E816B21F4401343EA0251A0
:102718008163704782B0002301930190019BC81820
:102728000190019B1A6002B0704700BF836823F4D0
:10273800702241EA02038360704700BF836823F474
:10274800401241EA02038360704700BF816841F488
:1027580080038360704700BF8068C0F38050704773
:10276800436819B923F480614160704743F480637A
:1027780043607047436819B923F48051416070473A
:1027880043F480534360704782B000230193019063
:10279800019A283251180191019B186880B202B041
:1027A800704700BF0123C9B203FA01F143681AB99F
:1027B80023EA01014160704741EA03024260704721
:1027C800036819420CBF002001207047C94301600B
:1027D800704700BF4368006810EA112007D0C8B2EC
:1027E800012202FA00F119420CBF002001207047B3
:1027F8006FEA11210160704708B501214FF480404C
:10280800FEF7B6F94FF480400021BDE80840FEF716
:10281800AFB900BF4FF46053C4F2010318607047AA
:1028280030B44FF460538D08C4F20103AA1C01F0C0
:10283800030153F8225089000F2404FA01FC25EA09
:102848000C0443F8224053F8224000FA01F10C43EB
:1028580043F8224030BC7047DC23C4F227231860B9
:10286800704700BF4FF48063C4F227231860704795
:102878004FF46053C4F20103186AC0F30020704794
:10288800016846F21002002321F00101C4F202029D
:102898000160036043608360C36003612123904249
:1028A80043616DD046F2280CC4F2020C60456ED02C
:1028B80046F24001C4F20201884270D046F2580C38
:1028C800C4F2020C604572D046F27001C4F20201F3
:1028D800884274D046F2880CC4F2020C604577D066
:1028E80046F2A001C4F20201884240D046F2B80C78
:1028F800C4F2020C604575D046F21041C4F20201E0
:10290800884277D046F2284CC4F2020C604578D051
:1029180046F24041C4F2020188427AD046F2584C4D
:10292800C4F2020C60457CD046F27041C4F2020148
:1029380088427ED046F2884CC4F2020C604500F012
:10294800818046F2A041C4F20201884200F08480EE
:1029580046F2B84CC4F2020C604501BF4FF4C84CB3
:10296800C4F2020C4FF03D52CCF80C2070474FF4E3
:10297800C040C4F202000022C2F23D02C2607047A9
:102988004FF4C040C4F202003D22826070474FF409
:10299800C043C4F202034FF47461996070474FF466
:1029A800C040C4F202004FF47412826070474FF4C2
:1029B800C043C4F202034FF07461996070474FF44A
:1029C800C040C4F202003D22C2F20002C260704759
:1029D8004FF4C043C4F202034FF47461C2F2000121
:1029E800D96070474FF4C043C4F202034FF03D5121
:1029F800D96070474FF4C840C4F202003D2282609B
:102A080070474FF4C843C4F202034FF474619960ED
:102A180070474FF4C840C4F202004FF47412826049
:102A280070474FF4C843C4F202034FF074619960D1
:102A380070474FF4C840C4F202003D22C2F20002BF
:102A4800C26070474FF4C843C4F202034FF4746184
:102A5800C2F20001D96070474FF4C840C4F20200C6
:102A68000022C2F23D02C260704700BF2DE9F00F9C
:102A78000368D1F80090D1F80CA0D1F81480D1F8EF
:102A880018C0CF690E6A4D6A8C6A4A6BD1F838B0A3
:102A980086B001930B6B0493CB6A05930B69029381
:102AA8004B68896803934AEA090343EA080343EA3F
:102AB8000C033B4343EA060949EA050545EA040CC9
:102AC8004CEA020348F23F08019ACFF21C0843EA95
:102AD8000B0502EA080845EA080404604369049AF9
:102AE800059C23F0070542EA040C4CEA0502039B07
:102AF800029D426145608360C16006B0BDE8F00F89
:102B0800704700BF0023036043608360C3600361B4
:102B180043618361C361036243628362C362036387
:102B280043638363704700BF036819B923F0010149
:102B38000160704743F0010303607047036819B9E7
:102B480023F400410160704743F400430360704779
:102B5800036819B923F020010160704743F020038E
:102B68000360704741607047406880B2704700BF9B
:102B7800036822B923F4002202600161704743F41C
:102B88000023036001617047036819B923F48021A9
:102B98000160704743F48023036070470AB9C1603D
:102BA80070470161704700BF0068C0F3C0407047BC
:102BB800006800F001007047406900F03800704775
:102BC80010B44FF4C84246F20F444FF4C04CC4F25C
:102BD8000202C4F20204C4F2020CA04288BF944666
:102BE8008A0040F67D704CBFDCF80420DCF8002039
:102BF800C0F67D7001EA000313420CBF00200120DB
:102C080010BC704730B44FF4C84246F20F444FF43A
:102C1800C043C4F20202C4F20204C4F20203A04296
:102C280088BF134688004BBF40F67D7240F67D751D
:102C3800C0F67D72C0F67D754BBF0A400D40DA6064
:102C48009D6030BC704700BF0B0604D543697AB15C
:102C580043F080034361802906D0036801F01E0118
:102C68001AB923EA010202607047194301607047EC
:102C780023F080034361EEE740F63C7C30B44FF428
:102C8800C04246F20F454FF4C844C0F63C7CC4F23B
:102C98000205C4F20204C4F2020201EA0C03A842CB
:102CA80088BF2246D3B1036803F01E0000EAD12092
:102CB8008B0040F67D734CBF52681268C0F67D7376
:102CC80001EA030C1CEA020F0CBF002101210028B5
:102CD8000CBF002001F0010030BC7047406900F0D3
:102CE8008000E5E730B44FF4C84C46F20F444FF487
:102CF800C043C4F20204C4F2020CC4F20203A042AC
:102D080088BF63468A004BBF40F67D7240F67D75EA
:102D1800C0F67D72C0F67D754BBF0A400D40DA6083
:102D28009D6030BC704700BF08B501214FF00050CE
:102D3800FDF710FF4FF000500021BDE80840FDF7F7
:102D480009BF00BF70B491E860004FF4E8438C6895
:102D5800CA68C4F2000335432C431E6840F6FE716E
:102D680001FA00F5224326EA050502FA00F145EAD0
:102D78000100186070BC70470023036043608360E3
:102D8800C36070474FF4E843C4F200031A6831B9CE
:102D9800012101FA00FC22EA0C021A6070470121A5
:102DA80001FA00F141EA0200186070474FF4E84365
:102DB800C4F2000300095A6831B9012101FA00FC84
:102DC80022EA0C025A607047012101FA00F141EA37
:102DD80002005860704700BF4FF4E843C4F2000394
:102DE8005A6818B922F003005860704742F003028D
:102DF8005A6070474FF4E843C4F2000301FA00F147
:102E080022B91A6822EA0100186070471A6811434B
:102E18001960704782B04FF4E843C4F200030022FF
:102E280001920193019A083210180190019B1960D0
:102E380002B0704782B04FF4E843C4F200030022A6
:102E480001920193019A143210180190019B1960A4
:102E580002B0704747F220430828C4F200030CBFB1
:102E680042EA012142EA0141C150704782B04FF461
:102E7800E8430021C4F2000301910193019A2C3226
:102E880002EB90010191019B186880B202B0704773
:102E98004FF4E843C4F200031A6839B94FF480517B
:102EA80001FA00F022EA00021A6070474FF4805CD1
:102EB8000CFA00F141EA0200186070474FF4E84349
:102EC800C4F2000301FA00F122B91A6822EA0100EB
:102ED800186070471A681143196070474FF4E84248
:102EE800C4F2000201FA00F1536B19420CBF002032
:102EF800012070474FF4E843C4F2000301FA00F1DF
:102F0800596370474FF4E843C4F2000301FA00F133
:102F18001A68586B084003D011420CBF00200120EA
:102F2800704700BF4FF4E843C4F2000301FA00F110
:102F38005963704708B54FF4A843C4F20003984298
:102F480018D04FF4B041C4F2000188421ED04FF4AB
:102F5800B842C4F20002904200D008BD01214FF4EB
:102F68000000FDF7F7FD4FF400000021BDE8084020
:102F7800FDF7F0BD01214FF40010FDF7EBFD4FF414
:102F880000100021BDE80840FDF7E4BD01214FF421
:102F98008000FDF7DFFD4FF480000021BDE8084008
:102FA800FDF7D8BD70B5044684B0A28868460D46C2
:102FB80022F03F06FDF7CAFC02982A684DF68363A3
:102FC800C4F21B333604A3FB0031360C890C41EAEA
:102FD8000603A380B4F800C02CF00106330448F2BD
:102FE800A066C0F201061B0CB242238028D8530009
:102FF800B0FBF3F080B201312184032898BF04208C
:10300800A083B4F800E0A8886E892989B5F80CC0B7
:103018001FFA8EF242F001032380B4F800E02EF488
:10302800806222F00A031A04120C46EA000342EAFC
:10303800030E41EA0C00A4F800E0208104B070BD42
:10304800EB884BF6FF7E73451DBF02EB820202EB55
:103058008202B0FBF2F002EB420216BF80B2B0FB74
:10306800F2F040F480400205160D0EB940F0010060
:103078004FF4967344F6D35603FB01F2C1F262068D
:1030880086FB02239E096FEA404C711C6FEA5C4084
:103098002184B5E741F28833002103604BF6FF72C3
:1030A8004FF480438180C2800181418183817047D0
:1030B800038829B923F001010B041A0C0280704718
:1030C80099B241F001030380704700BF038829B912
:1030D80023F480710B041A0C0280704799B241F4F2
:1030E80080730380704700BF038829B923F40071F7
:1030F8000B041A0C0280704799B241F400730380E4
:10310800704700BF1AB901F0FE010182704741F013
:1031180001010182704700BF038829B923F4806147
:103128000B041A0C0280704799B241F48063038043
:10313800704700BFB0F80CC02CF0FE02130401F079
:10314800FE011A0C41EA020383817047838929B979
:1031580023F001010B041A0C8281704799B241F0E7
:1031680001038381704700BF038829B923F0400118
:103178000B041A0C0280704799B241F04003038097
:10318800704700BF038819B95B045A0C0280704766
:103198006FEA43416FEA514303807047038829B1BE
:1031A80023F080010B041A0C0280704799B241F099
:1031B80080030380704700BFB1F5804F838B05D033
:1031C80023F4804211040B0C838370479BB243F4B1
:1031D800804CA0F81CC07047B1F5006F038805D07B
:1031E80023F400610B041A0C0280704799B241F471
:1031F80000630380704700BFB1F5005F038805D006
:1032080023F400510B041A0C0280704799B241F460
:1032180000530380704700BF038829B923F01001C9
:103228000B041A0C0280704799B241F01003038016
:10323800704700BF01827047008AC0B2704700BF64
:10324800038829B923F480510B041A0C02807047B3
:1032580099B241F480530380704700BFB1F5006F05
:10326800038805D023F400610B041A0C0280704710
:1032780099B241F400630380704700BF038829B9FD
:1032880023F020010B041A0C0280704799B241F018
:1032980020030380704700BF008BC0F307207047EE
:1032A800838829B923F400610B041A0C82807047C3
:1032B80099B241F400638380704700BF838829B9BD
:1032C80023F480510B041A0C8280704799B241F4A0
:1032D80080538380704700BF82B000230193019020
:1032E800019A89180191019B188880B202B0704731
:1032F80083889BB21AB923EA010282807047194376
:1033080081807047B0F814C0038B1FFA8CF242EA30
:10331800034000EA010C2CF07F428B1A584240EB24
:1033280003007047828A038B91B241EA034020F080
:103338007F40704782B000230A0F009301930190E9
:103348000092009B21F07F4153B101981430019005
:103358000198036819420CBF0020012002B0704791
:10336800019A1832090C0192F2E700BFC943818221
:10337800704700BF8388828A90B208409BB206D00B
:1033880001F0E06113EA11410CBF002001207047F1
:10339800C9438182704700BF4FF47053C4F20203DF
:1033A800187070474FF47053C4F202031A6818B9C2
:1033B80022F480701860704742F480721A60704777
:1033C8004FF47053C4F202031A6818B922F400705B
:1033D8001860704742F400721A6070474FF47053D7
:1033E800C4F202031A6818B922F4806018607047A2
:1033F80042F480621A6070474FF47053C4F20203BB
:10340800186840F400621A60704700BF4FF47053A8
:10341800C4F20203186840F480521A60704700BF73
:103428004FF47053C4F202031A69002A09DA40F211
:10343800231148F6AB10C4F26751CCF6EF5059602F
:10344800586070474FF47053C4F20203186940F093
:1034580000421A61704700BF4FF47053C4F2020370
:103468005A69D20709D542F63B2146F67F60C0F675
:103478001901C4F65D409960986070474FF4705325
:10348800C4F20203586940F001025A61704700BF54
:1034980043F61443C4F202031A7802F0F30C83F8DB
:1034A80000C0197840EA01021A7070474FF470534F
:1034B800C4F202035869C0F34710704743F6164335
:1034C800C4F20203188880B2704700BF43F6154360
:1034D800C4F202031878AA3818BF0120704700BF49
:1034E80043F61443C4F20203187800F00C00704746
:1034F8004FF47053C4F202031A6919B922EA0001A1
:103508001961704710431861704700BF4FF470513C
:10351800C4F20201CB6818420CBF0020012070479A
:103528004FF47053C4F20203D86070474FF47053DD
:10353800C4F20203DA68D0030AD4D868C10601D5F8
:1035480005207047D96811F0EF0F03D006207047A7
:1035580001207047DB6813F0020F0CBF082007201A
:10356800704700BF00B583B008238DF80730FFF718
:10357800DDFF8DF807009DF807000128F7D09DF8BA
:10358800070003B000BD00BF43F61443C4F20203B2
:10359800187840F002021A70FFF7E4BF70B50446CD
:1035A8000D461646FFF7DEFF08280AD143F61443F6
:1035B800C4F20203187800F00F02144325432E4387
:1035C8001E7070BD10B50446FFF7CCFF082802BF77
:1035D80043F61543C4F202031C7010BD38B5044607
:1035E8000D46FFF7BFFF082800D038BD43F6164345
:1035F800C4F202031A8815B914431C8038BD92B26C
:1036080022EA04041C8038BD70B504460E46FFF754
:10361800A9FF082800D070BD4FF47055C4F2020508
:10362800286920F4407129612B692B612A6942F0CD
:10363800010028612670FFF795FF296921F0010331
:103648002B6170BD70B504460E46FFF78BFF082846
:1036580000D070BD4FF47055C4F202052A6922F4F7
:1036680040702861296941F480732B612A6942F00E
:10367800010028612680FFF775FF296921F0010301
:103688002B6170BD70B504460E46FFF76BFF082826
:1036980000D070BD4FF47055C4F202052A6922F4B7
:1036A80040702861296941F400732B612A6942F04E
:1036B800010028612660FFF755FF296921F0010301
:1036C8002B6170BDF8B5064614461D46FFF74AFF44
:1036D800082800D0F8BD4FF47057C4F202073A69C1
:1036E80022F440703861396941F440733B613A69AA
:1036F80042F001003861C6E90045FFF733FF396938
:1037080021F001033B61F8BD38B50446FFF72AFFF5
:1037180054B1012C08BF4FF4807405D0022C14BF9B
:103728004FF440744FF40074082800D038BD4FF4AB
:103738007055C4F202052B6923F440722A61286986
:1037480004432C61296941F004032B612A6942F47E
:1037580080302861FFF706FF296921F004032B61F7
:1037680038BD00BF70B505460E4649B1022914BFE1
:103778004FF440764FF40076012908BF4FF4807665
:10378800FFF7F0FE082800D070BD4FF47054C4F263
:103798000204206920F440732361226916432661DC
:1037A800216921F0F8002061236943F002021543E2
:1037B8002561216941F480302061FFF7D3FE236938
:1037C80023F002022261216921F0F803236170BD10
:1037D8004FF46D4340F0BE61CEF2000341F4202067
:1037E800D8607047C37830B47BB900784FF4614C27
:1037F800410900F01F02CEF2000C2031012303FA28
:1038080002F04CF8210030BC70474FF46D45CEF201
:1038180000054278EC6885780178E343C3F3022316
:10382800C3F104045FFA84FC02FA0CF40F2242FA92
:1038380003FC0CEA05024FF4614CCEF2000CE4B232
:10384800614442EA04031A0181F8002302784FF424
:10385800614C5109CEF2000C02F01F03012000FA5E
:1038680003F24CF82120CEE721F0604C4FF46D4371
:103878002CF07F02CEF2000342EA00019960704703
:103888004FF46D43CEF200031A6919B922EA000118
:103898001961704710431861704700BF4EF210035A
:1038A800CEF2000304281A680CBF42F0040222F08A
:1038B80004021A60704700BF94AF0008000000209F
:1038C800900000209000002068170020036970B461
:1038D80001F10902002B7AD043691878202844D0D6
:1038E800052808BFE52048725878202801F10A0207
:1038F8003BD0052808BFE52088729878202801F178
:103908000B0232D0052808BFE520C872D8782028D5
:1039180001F10C0229D0052808BFE52008731879A1
:10392800202801F10D0220D0052808BFE5204873A2
:103938005879202801F10E0217D0052808BFE52084
:1039480088739879202801F10F020ED0052808BF46
:10395800E520C873D879202801F1100205D0052880
:1039680008BFE520087401F11102187A202814D044
:1039780015462E2405F8014B1C7A202C08BF2A4630
:103988000BD05470587A941C202824D09070987AC0
:10399800D41C20281FD0D0700432DE7A0E72987F93
:1039A800DE7F1D7F5C7F000440EA066040EA050C6C
:1039B8004CEA04240C60187E5C7E40EA042CA1F8D2
:1039C80004C0D87D9B7D43EA002CA1F806C00021E5
:1039D800117070BC70472246DFE700BF2DE9F04147
:1039E800C56A8D4204460E464ED0037973B916B99E
:1039F8003046BDE8F081607804F130013246012399
:103A080003F080FEE0B9E662BDE8F08100F130071E
:103A1800394640782A46012303F0BAFE98B9A369CB
:103A2800216A20715A189542E1D294F80380B8F1BE
:103A3800010FDCD918F0010F15D0ED18607808E0F7
:103A48000120BDE8F0810120BDE8F081A36960781C
:103A5800ED182A460123394603F09AFE08F1FF3291
:103A6800A3695FFA82F8ED186078012339462A467F
:103A780003F08EFE08F1FF305FFA80F8B8F1010F0D
:103A8800E4D1002EB4D0B6E70020BDE8F08100BF35
:103A98002DE9F84F00210446FFF7A0FF034650B96F
:103AA8002278032A09D0002160780A4603F0BAFE7A
:103AB800003018BF0120BDE8F88F60790028F2D0E7
:103AC80004F13001E36204F50C750A46164606F85F
:103AD800013B5370721CAA42F8D1E368226984F84A
:103AE8001C324FF0550B61204FEA134C4FEA136E0E
:103AF80084F81822522741257226C2F3072A4FEA72
:103B08001249C3F30728120E84F82EB24FF0AA0BFD
:103B180084F8320084F8170284F81B22012384F801
:103B28002FB284F8307084F8317084F8335084F8F8
:103B3800146284F8156284F8165284F819A284F87D
:103B48001A9284F81D8284F81EC284F81FE26078F5
:103B5800626903F01DFE00236371A4E738B50446CB
:103B68000A46407804F13001012303F0CBFD08B187
:103B7800032038BD94F82F2294F82EC24AF6552314
:103B88004CEA02210AB2CFF6FF739A4201D0022012
:103B980038BD94F8682094F8695094F8661094F841
:103BA80067C0130443EA056242EA010343EA0C2EA4
:103BB80044F246132EF07F41C0F254039942E7D0F5
:103BC80094F8842094F8855094F8820094F883E05F
:103BD800110441EA056242EA000C4CEA0E2121F088
:103BE8007F40C01A18BF012038BD00BF08B508B112
:103BF80003780BB9092008BDC2888A4201D0092080
:103C080008BD407803F074FD10F0010018BF0320D0
:103C180008BD00BF0129F8B50D46044637D9C36968
:103C280099420AD20378066A022B54D0032B30D06B
:103C3800012B04D04FF0FF30F8BD0120F8BD4289B8
:103C480001EB5107B7FBF2F18919FFF7C7FE00280E
:103C5800F0D16089411E07EA01030137B7FBF0FE86
:103C680004EB030C0EEB060120469CF83060FFF7CE
:103C7800B5FE0028DED16389581E0740E419EB071A
:103C880094F8302046EA02203CD50009F8BD01200E
:103C9800F8BD41898B08B5FBF3FC0CEB0601FFF777
:103CA8009DFE0028C6D16389ADB2581E00EA85057D
:103CB800641994F8322094F8331094F830E094F8AA
:103CC8003100130443EA016C4CEA0E0242EA002E6A
:103CD8002EF07040F8BD43895A08B1FBF2FC0CEB9A
:103CE8000601FFF77BFE0028A4D16289ADB2511E00
:103CF80001EA4505641994F831E094F8300040EA87
:103D08000E20F8BD0105080DF8BD00BF70B50C46C2
:103D18008168C4800129054603D00068C3699942B7
:103D280001D3022070BDE9B90178032917D0B0F892
:103D380008C00022A445EA60F3D94389416A5A09B8
:103D4800B4FBF2F311FA83F1296102FB134C1FFA59
:103D58008CF25101303140186861002070BD416A11
:103D68000029E4D0438990F802C05E0906FB0CF6EE
:103D7800B6B2B4420AD210E00128D2D92868C36981
:103D880099421ED2A41BA4B2A64206D8FFF742FF4E
:103D9800421C0146F0D1012070BDC369E960023BB5
:103DA800023999423EBF8278836A02FB0131428917
:103DB80028BF00215209B4FBF2F311FA83F12961FB
:103DC800C3E7022070BD00BFF0B5012983B00C46DF
:103DD800054602D9C369994202D3022003B0F0BD57
:103DE8000378066A022B27D0032B05D0012B3DD080
:103DF800022001222A71F1E7438901929908B4FB54
:103E0800F1FC0CEB0601FFF7E9FD019A0028F0D15F
:103E18006B89A1B25E1E06EA810405EB040EC2F3AB
:103E28000726140C110E8EF830208EF831608EF8AB
:103E380032408EF83310DCE7418901924B08B4FB1D
:103E4800F3FE0EEB0601FFF7C9FD019A0028D0D159
:103E58006B89A4B2591E01EA440305EB030EC2F3B1
:103E6800072C8EF830208EF831C0C2E743890192C2
:103E780001EB5107B7FBF3F18919FFF7AFFD019A81
:103E88000028B6D169894B1E3B4014F001041DBFC0
:103E9800EB18D0B293F830E0EB1816BF0EF00F0E07
:103EA80010464EEA0010013783F83000B7FBF1FCEA
:103EB800012028710CEB060128460192FFF78EFDC0
:103EC800019A002895D16B89591E0F402CB1EF1922
:103ED800C2F3071287F830208BE7EF19C2F30322E9
:103EE80097F830C02CF00F010A4387F8302080E79C
:103EF8002DE9F04105460E46D0F81C8000292AD14C
:103F0800C368D3F1010738BF0027434528BF47F0EE
:103F18000107002F0CBF1F4601273C460134A0456E
:103F280002D8012F2AD9022428462146FFF772FE1B
:103F3800C8B1A0F1FF32514241EB0203012808BF8A
:103F480043F001032BB9BC42E8D11846BDE8F08123
:103F58002046BDE8F081FFF75DFE012811D98045B4
:103F6800F7D83746D9E7284621466FF07042FFF761
:103F78002BFF48B14FF0FF30BDE8F0810020BDE8CD
:103F8800F0810120BDE8F08156B92B69EC60591C1D
:103F9800DED00120013B68712B612046BDE8F0812D
:103FA800284631462246FFF70FFF0028E2D1ECE70A
:103FB8002DE9F8430E46C1884D1CADB2044615B92B
:103FC8000420BDE8F8830369002BF9D0006847890D
:103FD8007A09B5FBF2F702FB17518AB2FAB9E16820
:103FE80001332361002929D083785A1E174216D13C
:103FF800FFF710FE0128074624D901302FD020688A
:10400800C1698F4221D2BE1EC169E7608B1E9E42E4
:104018003DBF8278836A02FB063600262661428904
:10402800E5805309B5FBF3FC03FB1C518BB25A0125
:104038003032801860610020BDE8F8830189A94208
:10404800BED9ECE70220BDE8F883002EB8D0E168BD
:10405800FFF74EFF074628B90720BDE8F88301207F
:10406800BDE8F8830128EDD00130F8D020680021A0
:10407800FFF7B4FC0028F2D123685E8930339A191F
:1040880001E003F8010B9342FBD12368DA69BE1EF5
:10409800901E86423DBF986A997801FB0600002071
:1040A800D8624FF000084FF001090EE083F8049041
:1040B80020680021FFF792FC80B92368DA6A08F1CA
:1040C8000101501CD8625FFA81F89A784245184677
:1040D800ECD8D96AC8EB0103C36295E70120BDE8B3
:1040E800F88300BF2DE9F0470B78202B0E460446D5
:1040F80005D10A4612F8013F0136202BFAD0A3F168
:104108002F01484240EB01025C2B14BF134642F0DA
:10411800010303B101360025A56033781F2B40F257
:104128002C814AF29457D4F818C02025C0F600070D
:1041380000208CF800508CF801508CF802508CF854
:1041480003508CF804508CF805508CF806508CF805
:1041580007508CF808508CF809508CF80A508046A3
:104168004FF00809824616F80820202A8CBF002341
:1041780001232F2A08BF43F0010308F10108002B8F
:1041880048D15C2A00F0D6804845B4BF00230123FB
:104198002E2A08BF43F001036BB1B9F1080918BF13
:1041A8004FF001092E2A0CBF4A4649F0010232B3EA
:1041B8000620BDE8F087130629D4202AF8D04AF64D
:1041C8005C71C0F6000101E09A42F1D011F8013F9C
:1041D800002BF9D1A2F14103DBB2192B98BF4AF0A9
:1041E800020A08D9A2F16101CBB2192B03D8203AEF
:1041F8004AF0010AD2B20CF800200130B3E74FEAC6
:104208008A005FFA80FA4FF00B090820ABE7803A82
:10421800BA5CD2E70423202A464400F28C800028A6
:10422800C6D09CF800E0BEF1E50F00F0B080B9F10F
:10423800080F04BF4FEA8A0A5FFA8AFA0AF00300F5
:1042480001280AF00C0A08BF43F01003BAF1040F62
:1042580008BF43F008038CF80B3020460021FFF715
:1042680055FD002872D120682169FFF7B7FB0028A7
:104278006CD163691A78002A7CD0D97A11F0080FBA
:104288005ED1D4F818C09CF80080904558D193F8B6
:1042980001809CF801E0F04552D193F802809CF827
:1042A800022090454CD193F803809CF803E0F04538
:1042B80046D193F804809CF80420904540D193F8A7
:1042C80005809CF805E0F0453AD193F806809CF803
:1042D8000620904534D193F807809CF807E0F04514
:1042E8002ED193F808809CF80820904528D193F89F
:1042F80009809CF809E0F04522D19CF80A809A7A56
:1043080090451DD19CF80B2002F0040E5FFA8EF246
:10431800002A40D1CA0637D593F81B9093F81AA003
:104328005A7D197D4AEA092041EA022340EA0343FB
:10433800A360FDE64644002300283FF439AF70E748
:1043480020460021FFF734FE00288CD0A0F104039A
:10435800D3F1000C4CEB0303A26992F80BE01EF0BA
:10436800040F14BF002103F00101002918BF052024
:10437800BDE8F08701230420EEE720462946FFF731
:10438800C5FC6561BDE8F0870520BDE8F08705221A
:104398008CF800204BE7BDE8F08700BF70B500211E
:1043A8000446FFF7B3FC00B170BD20682169FFF730
:1043B80015FB0028F8D160690078A0F1E5014B42AF
:1043C80043EB0102002814BF134642F0010333B93E
:1043D80020460121FFF7ECFD0028E6D070BD2068DB
:1043E8002169FFF7FBFA002835D16669014606F115
:1043F800200533461A4602F8011B5970531CAB427C
:10440800F8D1A16991F800C086F800C04B787370A4
:104418008A78B27091F803E086F803E091F804C056
:1044280086F804C04B7973718A79B27191F807E004
:1044380086F807E091F808C086F808C04B7A7372CE
:104448008A7AB272A369D97A01F0180232732368A2
:104458000121197170BD70BD10B50423044619E01F
:104468002068FFF7BBFAE0B962691378C3B1B3F10A
:10447800E50118BF01212E2B0CBF002301F0010319
:1044880013B1D27A13070AD520460021FFF790FD11
:10449800034630B921690029E2D118460BB910BD8D
:1044A80004200023236110BD0129F8B50F460446F6
:1044B80004D9C3690220994202D3F8BD0220F8BD8D
:1044C800012600E02F4620463946FFF7A3FB0546A4
:1044D8000028F2D00128F1D0013010D0204639460A
:1044E8000022FFF771FC0028E7D123695A1C02D08B
:1044F800591C21616671E2699542E3D3F8BD012038
:10450800F8BD00BFC3690239023B99423DBF8278BA
:10451800836A02FB01300020704700BF2DE9F84F85
:1045280003681C78303C092C164614D940F2A405BF
:10453800C2F200052C680C6014B32078A8B160782A
:1045480003F0D6F8C30710D4EEB110F0040018BF7A
:104558000A20BDE8F88F5A783A2AE7D10233036077
:10456800002CE3D00B20BDE8F88F0020207060708D
:1045780003F0ACF80746C00708D50320BDE8F88F5C
:104588000C20BDE8F88F3046BDE8F88F607802212E
:1045980004F10A0203F046F910B10D20BDE8F88FC6
:1045A8006189B1F5806FF8D826B1790702D50A205C
:1045B800BDE8F88F00212046FFF7D0FA012811D076
:1045C8000026032826D00028E7D194F83C0094F868
:1045D8003B30B4F80AC043EA002EE6451DD00D2052
:1045E800BDE8F88F94F8F221002AD6D094F8F82183
:1045F80094F8F91194F8F6E194F8F761100440EA98
:10460800016343EA0E0C4CEA062620463146FFF7C2
:10461800A5FAD6E70120BDE8F88F94F8471094F87A
:10462800467057EA01230ED194F8560094F857A023
:1046380094F8542094F85590070447EA0A6343EA2B
:10464800020848EA092394F83E2094F83F7094F849
:1046580042A094F841E094F8448094F843B094F868
:10466800409094F83D10A36142EA0727F2194EEAF8
:104678000A205BEA082B84F803902262A17020814B
:1046880009FB03F30FD194F852E094F853A094F87F
:10469800508094F851B04FEA0E4949EA0A6949EA4C
:1046A800080848EA0B2B4FEA5C1CC7EB0B07B0FB6A
:1046B800FCFCF81ACCEB000EBEFBF1F1023140F61F
:1046C800F6708142E16144D94FF6F67E71454CD9C6
:1046D80094F85E9094F85FA094F8601094F85C7079
:1046E80094F8618094F85DE060784FEA0949944451
:1046F80049EA0A6941EA0822634449EA07070021AE
:10470800B218A36247EA0E264FF0FF3323612171E6
:1047180061716662626104F13001012302F0F2FF07
:1047280068B994F82F3294F82E224AF6552042EAB6
:10473800032C0FFA8CF1CFF6FF70814217D00321BA
:10474800A8882170411C0020E062A980E180BDE8B2
:10475800F88F01219B1803EB0C0063624FF0FF32C6
:104768000023A06222612371EAE70221F2E794F8AC
:10477800322094F8330094F8303094F83110120451
:1047880042EA006242EA030C45F252204CEA012157
:10479800C4F261108142D2D194F8160294F817320B
:1047A80094F814C294F81512020442EA036040EA2D
:1047B8000C0347F2722C43EA0121C6F2411C614501
:1047C800BDD194F81E7294F81A6294F81BC294F83A
:1047D8001F8294F81C2294F8183294F81D0294F859
:1047E80019123F04360447EA086746EA0C663A435A
:1047F80046EA030C4CEA012142EA00222161E26008
:1048080003219DE708B10B20704740F2A403C2F2D0
:1048180000031A6802B1107009B100220A70196009
:10482800002070472DE9F0438DB00CAB02F01F0556
:1048380043F82C1D00220260044602A9184605F020
:104848001E02FFF76BFE064618B130460DB0BDE8F4
:10485800F08309AB02A801990893FFF743FC15F010
:104868001C0F07D148B9079F17B1FB7AD8060AD59C
:104878000426EAE718B104280BD00646E5E76A07DC
:104888004AD50826E1E7A90743D5DA0741D507261F
:10489800DBE702A8FFF782FD0028EED1079F45F06D
:1048A80008050023FB7201F0D5FC029BB873C0F326
:1048B800072C020C000E7874012087F80FC03A7498
:1048C8001871079945F02005DA6AA571E26121623D
:1048D8007D7D397DFA7EB87E41EA052C40EA022EBC
:1048E8004EEA0C452561B97FFD7F3A7F97F81DC0D8
:1048F8002360080440EA056141EA020EFF204EEAFF
:104908000C21E071E160D9880022A260A261A18037
:104918009BE7029B3946D7E7079F002FB7D0F87A65
:1049280010F0110FB3D12B07F3D57A7D97F81A80C1
:1049380097F814C0FB7E02983E754CEA022148EABB
:1049480003297E75BE76FE763E777E77BE77FE7744
:10495800012259EA01490271D0F82C8008D0494651
:10496800FFF7A2FD002888D1029809F1FF31C16044
:104978004146FFF733F8002893D0064665E700BFA5
:104988002DE9F04F04461E46002383B00F463360DE
:104998000068A1889146FFF729F9054628B9A37947
:1049A8001A0606D4DB0706D40725284603B0BDE857
:1049B800F08F0225F9E7A368E268C3EB0208C14556
:1049C80038BFC846B8F1000FEFD004F1240B824677
:1049D80022685589B3FBF5F105FB1131002939D15E
:1049E800E0799578A84238BF60690CD3002B40F075
:1049F800D180206901280BD9451C00F0C58000230F
:104A080022686061E371D5690238A91E884256D3CD
:104A1800A27962F07F00A0710225C6E7A379590642
:104A280000F1BD80A5694D4509D0507859464A46E0
:104A3800012302F067FE002840F0A6802268E07992
:104A4800A368C4F81890411CE1715589B3FBF5FEC1
:104A580005FB1E316D1A454528BF4546BC461DB3AA
:104A6800203161183B460A7903F8012BF84307EB1C
:104A7800050C0CEB0007481D634507F0010712D031
:104A88002FB14F7903F8017B881D63450BD002468F
:104A9800194612F801EB01F801EB47785F704B1CDF
:104AA800501C6345F3D1A36832685B195019B8EB01
:104AB8000508A360674630608AD1554675E7917846
:104AC800936A01FB00300028A2D0B2F80A90E3797B
:104AD800B8FBF9F500EB0309002D9FD005EB030C9B
:104AE8008C4588BFC3EB01055078EBB239464A467E
:104AF80002F008FEA379002847D1580637D5A169E6
:104B08002268C9EB010C654532D95389002B2FD097
:104B180003FB0CFC5A4607EB0C0101EB030912F8E6
:104B2800013BC843019309EB000300930198DDF8AA
:104B380000E007F80C004B1C4B450EF0010016D0A6
:104B480038B19BF801C0013301324B4581F801C0EF
:104B58000DD0AC461146184611F801EB00F801EBF0
:104B680055785D70431C4A1C4B45F3D16546226855
:104B7800E179A36805EB010C84F807C0528902FBB0
:104B880005F507EB050C8FE7A37963F07F02A271A7
:104B980001250AE710466169FFF73CF82AE75078D3
:104BA800A2690123594602F0F3FDA3790028ECD14C
:104BB80023F040002268A07134E700BF2DE9F84FC8
:104BC80004461F46002388463B600068A1881546B6
:104BD800FFF70CF8064628B9A279110605D4930701
:104BE80007D407263046BDE8F88F02263046BDE8D0
:104BF800F88FE168A368CD4206D38B4288BFE36093
:104C080042F02003A371EDE7002DF6D004F1240B48
:104C1800824622685689B3FBF6F106FB113100295A
:104C280034D1E0799678B0420FD3002B40F0DD8084
:104C38002069002800F0E580012810D0461C00F00B
:104C4800CD80002322686061E371A179490600F1F3
:104C5800B8806369D169023B8E1EB34254D3A079F0
:104C680060F07F02A2710226BCE7A669A3684E45E0
:104C780003D0E0688342C0F0CD800131E1715689EC
:104C8800C4F81890B3FBF6F206FB1231761AAE425E
:104C980028BF2E4646B320316118081D4246C3433B
:104CA80000EB060909EB030012F801CB4B1D4B453D
:104CB80081F804C000F0010015D030B112F801EB02
:104CC8008B1D4B4581F805E00DD0B44611461846BA
:104CD80011F801EB00F801EB56785E70431C4A1C92
:104CE8004B45F3D16646A368A17941F04002A27111
:104CF8003A689B199019AD1BA360B044386088D1FD
:104D08005646E168A27978E79078966A03FB0063D3
:104D1800002BA4D0B2F80A90E179B5FBF9F603EBC1
:104D28000109002EA1D006EB010C844588BFC1EB18
:104D38000006F3B2507841464A4602F029FD0028A1
:104D48004CD1A1692268C9EB01094E4531D9538973
:104D580053B303FB09F208EB020103EB0109CB4350
:104D680018F802C003EB090E5A464B1C4B4502F8D3
:104D780001CB0EF0010016D038B191F801C0013313
:104D880001324B458BF801C00DD0B4461846114688
:104D980010F801EB01F801EB5E78431C56704A1CD1
:104DA8004B45F3D166462268A37923F0400C84F87A
:104DB80006C0E079A3683118E171528902FB06F652
:104DC80096E75078A2690123594602F0E1FCA379DD
:104DD80028B923F040002268A0713AE7A37963F06C
:104DE8007F0E84F806E00126FCE610466169FFF7AD
:104DF8007FF800287FF420AF5646A368E168A279BF
:104E0800FBE610461946FFF773F8206100287FF487
:104E180013AFF1E7507859464A46012302F072FC75
:104E28000028DBD12268A368E17926E738B5044673
:104E38000068A188FEF7DAFEB8B9A3799A0614D5F6
:104E480058060DD52146A26951F8240B0123407854
:104E580002F09EFC00283DD1A17921F04003A37106
:104E68002068E169FEF7BAFD00B138BD256A95F8FA
:104E78000BE04EF02001E972E0682877A289130A56
:104E88006B77B4F80EC085F81EC0E17BE97720691E
:104E9800A876228A130AEB76B4F812E085F814E0B3
:104EA800618A080A687501F0D5F9020C030EC0F38F
:104EB800072C2A766B76A87585F817C0A179206823
:104EC80021F020030122A37102712068BDE8384057
:104ED800FEF7DEBD0120C8E710B50446FFF7A6FFC0
:104EE80000B9206010BD00BF2DE9F04104460F460F
:104EF8000068A188FEF77AFE0546002856D1A379F6
:104F08001A0656D4E268BA4203D213F0020F08BF59
:104F18001746FF200023A268E071A360002F45D048
:104F280020684389817801FB03F8002A45D07B1E5D
:104F3800013AB3FBF8FCB2FBF8F39C453DD3C8F14A
:104F480000031A406169A260BF1A002940D1A36812
:104F5800B0F80AE0B3FBFEF60EFB16320E46EAB1D5
:104F6800A269B2421AD094F806C05FEA4C6104F113
:104F780024070AD501234078394602F009FCA379B1
:104F880008BB23F040032068A371407839463246B5
:104F9800012302F0B7FBA8B9A368A661E2689A42A8
:104FA80004D2A179E36041F02000A0712846BDE851
:104FB800F08102252846BDE8F0812169002931D019
:104FC8006161C2E7A37963F07F01A1710125EDE773
:104FD800474598BFA36816D832E0FEF789FF014617
:104FE80000282AD0481CEDD0012915D92068C369AA
:104FF800994211D2A2686161C8EB070708EB020366
:10500800B845A3601CD294F806C05FEA8C73E4D458
:10501800FEF700FE0146E5E7A07960F07F05A5717F
:105028000225C3E7FEF764FF01280146F4D00130EA
:10503800C8D020682161616187E7A3682068474676
:105048004289B7FBF2F65FFA86FC84F807C042890A
:10505800B7FBF2FEDB1902FB1E76A36026B9B3FB91
:10506800F2F102FB11327AE7C2690239023A91423F
:10507800D2D28678826A06FB01210029CCD00CF1B5
:105088000107E771B0F80AE0B3FBFEF701EB0C0685
:105098000EFB173263E700BF30B587B006AB044696
:1050A80043F8141D002218462146FFF737FA08B1C5
:1050B80007B030BD03A8A06101992046FFF712F898
:1050C800C0B963697BB1DA7A0520D106F0D593F8C7
:1050D8001BE0987E5D7D1A7D40EA0E2C42EA05238E
:1050E8004CEA0341A1602368D9882046A1800021A9
:1050F800FEF70CFE042808BF0520D9E770B5044662
:1051080084B00E460068A188FEF770FD054658B9C0
:1051180001ABA3612046BEB1FFF79EF9042808BF82
:10512800256104D018B10546284604B070BD314643
:105138002046FEF7CBFB00212046FEF739FF042866
:10514800F1D100202061EFE72946FEF7DFFD054693
:10515800EAE700BF30B58DB00CAB0C4643F82C0D18
:1051680002A918460022FFF7D9F9054610B12846CA
:105178000DB030BD09AA02A801990892FEF7B2FF46
:1051880005460028F3D1079820B102A82146FEF76A
:105198009DFBECE70625EAE72DE9F04F85B004AB67
:1051A800019143F8040D1146144618460022FFF7F2
:1051B800B5F90546002840F096802068D0F81C8094
:1051C8000369A8F10202934240F291800778012F07
:1051D80000F0CD80D0F820904946FEF7FFFB08F19B
:1051E800FF3606F0010A2E46002840F0E7802068C6
:1051F8004189022F09F1010900F13003029179D0A8
:10520800997893F803E01A7893F801B0090441EA11
:105218000E6C4CEA020141EA0B2E2EF0704C029AF9
:10522800BCF1000F08BF01260433043AB8F10108A5
:1052380052D0BAF1000F1CD0002A00F0AA80022F29
:1052480000F0B280997893F803E093F800A093F8FF
:1052580001B0090441EA0E6141EA0A0C4CEA0B2E3E
:105268002EF0704101B901360433043AB8F101084F
:1052780032D0AB46002A48D0022F53D0997893F801
:1052880003A01D7893F801E0090441EA0A61294363
:1052980041EA0E2525F0704101B90136043A04337C
:1052A80008F1FF38002A4AD0022F55D0997893F890
:1052B80003A01D7893F801E0090441EA0A61294333
:1052C80041EA0E2C2CF0704505B901360433043A36
:1052D800B8F10108CED15D46032F066101D1012244
:1052E800427101980660284605B0BDE8F08F019923
:1052F8000B60F8E793F801C01A7852EA0C2200D143
:105308000126029902338A1E90E74946FEF766FB9A
:10531800002853D12068022F428909F1010900F1C0
:105328003003ABD15D7893F800C05CEA052108BF73
:105338000136023A023308F1FF38002AB4D149464F
:10534800FEF74CFB002839D12068022F428909F169
:10535800010900F13003A9D193F801E093F800C0E6
:105368005CEA0E2100D101360233023AB0E7022787
:105378002E463946FEF74EFC431C21D0012821D089
:1053880000B901362068C36901379F42F1D306612D
:10539800A7E74946FEF722FB80B9206809F1010911
:1053A800428900F130034AE7597893F800E05EEA51
:1053B800012100D101360233023A57E7054692E748
:1053C800012590E702258EE770B504460068A1889C
:1053D800FEF70CFC064628B9A379180604D49907E9
:1053E80005D40726304670BD0226304670BDA56834
:1053F800E268AA42F6D943F02003E560A371206869
:10540800BDB16169FEF706FC421C05461BD00128A8
:1054180017D02068C2699542E4D261696FF0704282
:10542800FEF7D2FC064680B1A17961F07F00A07139
:10543800D8E72169FFF738F806462561002EF3D131
:10544800D0E70226F0E70126EEE720682946FFF7B5
:105458002BF80646002EE7D1C4E700BFF0B595B09B
:1054680014AB03A943F84C0D01221846FFF756F870
:1054780008B115B0F0BD11AC03A801990994FEF765
:1054880031FE0028F5D1089B0620002BF1D0DA7AEE
:10549800D10701D50720ECE793F815E01D7DD97EEB
:1054A80093F81AC045EA0E254CEA0120D30640EAD3
:1054B80005451DD50220012DDBD90DF10B010AABE5
:1054C8004F788E781A46023102F8017B5E70531CC1
:1054D800A342F5D10AA802210C95FEF717FC002873
:1054E800C7D10AA8FEF7B8FF0028D3D00428C0D136
:1054F80003A8BDF81210FEF709FC0028B9D10398DB
:105508000799FEF76BFA0028B3D10899E5200870CF
:1055180003980123037115B9FEF7BAFAA9E72946DA
:10552800FEF7C2FF0028A4D10398FEF7B1FAA0E75E
:105538002DE9F04F91B010AB06A943F82C0D0122CC
:105548001846FEF7EBFF0446054618B1204611B091
:10555800BDE8F08F0DAA06A805990C92FEF7C2FDCA
:10556800044680B10428F1D106982946FEF7C0FC0C
:10557800072482460028E9D002240128E6D0013019
:1055880003D10124E2E70824E0E706982946FEF75C
:1055980025FA04460028D9D1069DEE69AAF1020130
:1055A800B01E81423EBFA86AAF7807FB0107688931
:1055B80028BF274605F13006B8B1F3433018C418A0
:1055C80005F1310300218342317004F001020CD04F
:1055D80022B1197005F13203834206D01A4602F847
:1055E800011B5970531C8342F8D120222E2110230D
:1055F80085F8312085F8322085F8332085F8342065
:1056080085F8352085F8362085F8372085F8382044
:1056180085F8392085F83A2085F8301085F83B3030
:1056280000F018FE4FEA1A448346C0F30722C0F37D
:105638000740009401909DE8030085F84810240A6B
:105648004FEA1B63CAF3072C029385F849308DF89B
:10565800134085F84540CDF80CA085F846B08DF884
:10566800112085F8472085F84AA08DF812C085F8E2
:105678004BC085F8440005F1500305F12F0105F1F1
:10568800700491F801C01A4602F801CB91F802E0C3
:1056980083F801E0531C0231A342F2D12E2306986D
:1056A80085F851300478089B032C48D01A0CC3F3B2
:1056B8000724110A85F86A3085F86B4085F864205C
:1056C80085F86510827872B34FF000084FF0010931
:1056D8004546C76280F804900021FEF77FF901373C
:1056E80058BB06984189B1B13346711803F8015B7C
:1056F800F44308198B4200F001020BD01AB10133B0
:105708008B42757006D01A4602F8015B5D70531C17
:105718008B42F8D1069808F1010390F802E05FFA8D
:1057280083F8C645D5D806A8FEF738FE044670B1FA
:1057380006985146FEF7B8FE08E7044606E7416AB0
:105748009942B3D100210A460C460B46B2E70B9AA0
:105758009DF81110019BD1751020D0720298039901
:10576800069C137650769DF8123000989DF813C069
:1057780091760121107582F816B0D37682F815C09B
:1057880020462171FEF784F90446DFE630B58DB076
:105798000CAB0C4643F82C0D1546184602A90122FD
:1057A800FEF7BCFE08B10DB030BD09AA02A80199E8
:1057B8000892FEF797FC0028F5D1079B0620002BDE
:1057C800F1D093F80BE0029A05F0270C2EEA0C00B2
:1057D8000CEA040505430121DD7210461171FEF73C
:1057E80057F9E0E710B58CB00CAB0C4643F82C0D1C
:1057F80002A918460122FEF791FE08B10CB010BDAF
:1058080009AA02A801990892FEF76CFC0028F5D1B4
:10581800079B0620002BF1D0B4F806C0029A83F843
:1058280016C0E088010AD975A0881876A188080AE8
:105838000121587610461171FEF72AF9DEE700BFFC
:10584800F0B59BB00C46019017AB01A803A9012243
:105858000993FEF763FE08B11BB0F0BD03980199E8
:105868000A9003A8FEF73EFC0028F5D1089B042007
:10587800002BF1D011AF0A330DF159063A46114603
:1058880093F801E09D7801F801EB13F803CF557008
:105898000332B24281F801C0F1D10DF10B010AAB1C
:1058A8004E788D781A46023102F8016B5D70531CF0
:1058B800BB42F5D10AA82146FEF714FC00285AD0AD
:1058C8000428C9D10AA8FEF769FD0028C4D11AA97D
:1058D8000F9F11F8224D07F120067C7307F10E0384
:1058E8004D788C781846023100F8015B5C70431CD7
:1058F800B342F5D19DF844C0039A4CF02000012131
:10590800F8721171FB7AD8061ED5B97E3B7D0A98CC
:10591800FD7E7C7DC26941EA052C43EA042E4CEAEF
:105928000E03023B911E8B4227D290F802E0826A56
:105938000EFB032109B3FEF751F80A9B00288BD10F
:1059480093F851102E291AD003A8BDF81210FEF7AB
:10595800DDF9002880D103980799FEF73FF8002861
:105968007FF47AAF0899E5220A700398012303713E
:10597800FEF78EF870E708206EE702206CE793F8D0
:1059880000C00C9ABCF1030F0ED0110CC2F307240F
:10599800080A83F86500012083F86A2083F86B40C1
:1059A80083F864101871CFE7596A8A4202BF01462A
:1059B80004460246E9D1ECE72DE9F04F894689B063
:1059C800154618B10B2009B0BDE8F08F012901D99F
:1059D8000E20F8E740F2A402C2F20002146834B1C3
:1059E800207001F073FEC30703D50320EBE70C20FA
:1059F800E9E710F0040001D00A20E4E7022104F1ED
:105A08000A0201F00FFF0028E2D16389B3F5806F25
:105A1800DED8012106AA01F005FF0028D8D1069B8F
:105A2800B3F5FA6FD4D30120C0F2D070834228BFF7
:105A38004FF0FA63B9F1000F0CBF3F2600269B1BFD
:105A4800069307214FF4007295420ED05200013997
:105A5800FAD1954209D062891F461146B1F5007FF7
:105A680040F287807F084908F8E7002DF3D0628963
:105A7800954238BF1546B5FBF2F0B3FBF0F340F69C
:105A8800F4718B42019063D94FF6F475AB4253D849
:105A980002EB4300C11C4FF48043B1FBF2F509F15E
:105AA800010B93FBF2FA4FF002080020032107AA2A
:105AB80001F0B8FE00288BD10798069B0BEB060275
:105AC8000AEB050C0CEB020E471E4142049207EB51
